:100000000C945E000C9486000C9486000C94860080
:100010000C9486000C9486000C94FA040C948600D0
:100020000C9486000C9486000C9486000C94860038
:100030000C9486000C9486000C9486000C94860028
:100040000C9458040C9486000C94C8040C94A204DC
:100050000C9486000C9486000C9486000C94860008
:100060000C9486000C9486000000000024002700F9
:100070002A0000000000250028002B0004040404CE
:100080000404040402020202020203030303030342
:10009000010204081020408001020408102001021F
:1000A00004081020000000080002010000030407FB
:1000B00000000000000000000405790711241FBEA5
:1000C000CFEFD8E0DEBFCDBF11E0A0E0B1E0E0E3CC
:1000D000F6E102C005900D92A639B107D9F722E0EA
:1000E000A6E9B1E001C01D92A036B207E1F710E029
:1000F000CDE5D0E004C02197FE010E94A107CC35D8
:10010000D107C9F70E945A050C940B0B0C94000000
:100110002F923F924F925F926F927F928F929F9217
:10012000AF92BF92CF92DF92EF92FF920F931F9305
:10013000CF93DF93C82F862E29013A01882309F433
:1001400047C0813009F454C18EEF8C0F823008F41F
:100150004BC0C43609F437C1C53609F43CC1C636B4
:1001600009F437C1C73609F436C1C83609F431C1BC
:10017000C13709F42AC18DE88C0F833008F43DC1E2
:10018000C63709F420C1C83709F423C1C93709F4B7
:1001900022C1C03809F41FC18EE78C0F823008F4E9
:1001A0002EC1C43809F417C1C53809F40CC1C638CA
:1001B00009F40BC1C83809F40AC1CE3809F409C1E1
:1001C000CD3709F408C1C73809F407C182E0AEC0D1
:1001D000EE24E394F12C00E010E0D1E033243394DA
:1001E000C838C1F0312C16C0D2E0C23009F4E5C0E5
:1001F000C33009F4E2C08CE98C0F833008F09AC058
:10020000EE24E394F12C00E010E0C73609F0C9C0F9
:100210003324339490904C02AD2EB12CC92CD12CA8
:1002200096012A0D3B1D2F5F3F4F80914B0290E0BE
:100230002817390714F081E079C02224239420E0A4
:1002400030E0A901C301B2010E94E70987FD02C0A5
:10025000212C04C077FA709477F87094B701C80124
:100260000E94EC099B01AC01C301B2010E944D0A3E
:100270000E948608AB01BC01332021F1222011F13C
:10028000C501F3E0880F991FFA95E1F721E030E00E
:1002900002C0220F331F8A95E2F721503109C901AC
:1002A000330FAA0BBB0B482359236A237B230196E8
:1002B000A11DB11D8C019D01041B150B260B370BD5
:1002C000B901A8018091490290914A0293949092B9
:1002D0004C02FC01EC0DFD1D8082E0914902F09181
:1002E0004A0280914C0291E0980F90934C02E80FE3
:1002F000F11DC08381E090914C02F501E90FF11DE1
:10030000E81BF1092091490230914A02E20FF31FE4
:100310004083452F562F672F77278F5FD81758F7C1
:1003200080914C028D0F80934C026BC080934D02E4
:1003300080E067C0C736F1F1C83609F450C0C13754
:1003400051F1C33709F44EC0C43709F44EC0C53764
:1003500011F1C63709F44DC088E88C0F823008F4DB
:1003600048C0C03809F445C08EE78C0F823098F041
:100370008CE78C0F8230E8F1C638B9F1CE38C9F17C
:10038000CD37B9F181E0F12C00E010E0C73809F079
:1003900080E0E82E06C098EEE92E23E0F22E00E081
:1003A00010E08C2F877F813709F432CFC63809F0EF
:1003B00015CF2ECFBAE0EB2E02C0A4E6EA2EF12C28
:1003C00000E010E025CFD4E016CFD6E014CFD9E07E
:1003D00012CFD1E010CFD2E00ECFD3E00CCF42E06D
:1003E000E42E09C03AE0E32E06C084E6E82E03C0FE
:1003F000D1E0EE24E394F12CD2CFD2E0F9CED4E0D8
:10040000F7CEDF91CF911F910F91FF90EF90DF908A
:10041000CF90BF90AF909F908F907F906F905F90A4
:100420004F903F902F90089590E0FC01EC55FF4FC6
:100430003491FC01E057FF4F2491FC01E458FF4F39
:10044000E491EE2309F43BC0332339F1333091F0CA
:1004500038F43130A9F0323001F584B58F7D12C007
:10046000373091F03830A1F03430B9F48091800009
:100470008F7D03C0809180008F77809380000DC0B6
:1004800084B58F7784BD09C08091B0008F7703C099
:100490008091B0008F7D8093B000F0E0EE0FFF1FE1
:1004A000EE58FF4FA591B4918FB7F894EC9161117C
:1004B00003C020952E2301C02E2B2C938FBF0895AF
:1004C000CF93DF9390E0FC01E057FF4F2491FC01B4
:1004D000E458FF4F8491882361F190E0880F991FC1
:1004E000FC01E859FF4FC591D491FC01EE58FF4F34
:1004F000A591B491611109C09FB7F89488812095A6
:1005000082238883EC912E230BC0623061F49FB765
:10051000F8943881822F809583238883EC912E2B49
:100520002C939FBF06C08FB7F894E8812E2B2883A9
:100530008FBFDF91CF9108953FB7F8948091A201CA
:100540009091A301A091A401B091A50126B5A89B0B
:1005500005C02F3F19F00196A11DB11D3FBFBA2F55
:10056000A92F982F8827820F911DA11DB11DBC01B5
:10057000CD0142E0660F771F881F991F4A95D1F77A
:1005800008958F929F92AF92BF92CF92DF92EF9297
:10059000FF926B017C010E949C024B015C01C11423
:1005A000D104E104F104F1F00E949C02DC01CB01D2
:1005B00088199909AA09BB09883E9340A105B1058C
:1005C00070F321E0C21AD108E108F10888EE880E24
:1005D00083E0981EA11CB11CC114D104E104F104F4
:1005E00019F7DDCFFF90EF90DF90CF90BF90AF90E5
:1005F0009F908F900895CF92DF92EF92FF920F938A
:100600001F93CF93DF936C017A018B01C0E0D0E0A0
:10061000CE15DF0589F0D8016D918D01D601ED91E0
:10062000FC910190F081E02DC6010995892B11F410
:100630007E0102C02196ECCFC701DF91CF911F91BF
:100640000F91FF90EF90DF90CF900895089580E094
:1006500090E00895FC01538D448D252F30E0842FC8
:1006600090E0821B930B541710F0CF9608950197DA
:100670000895FC01918D828D981761F0828DDF01C4
:10068000A80FB11D5D968C91928D9F5F9F73928F85
:1006900090E008958FEF9FEF0895FC01918D828D7A
:1006A000981731F0828DE80FF11D858D90E0089547
:1006B0008FEF9FEF0895FC01918D228D892F90E09F
:1006C000805C9F4F821B91098F739927089586EA5A
:1006D00091E00E945B0321E0892B09F420E0822F46
:1006E0000895FC01848DDF01A80FB11DA35ABF4FEF
:1006F0002C91848D90E001968F739927848FA68921
:10070000B7892C93A089B1898C9180648C93938D47
:10071000848D981306C00288F389E02D80818F7D37
:1007200080830895EF92FF920F931F93CF93DF93EF
:10073000EC0181E0888F9B8D8C8D981305C0E88932
:10074000F989808185FD24C0F62E0B8D10E00F5FA6
:100750001F4F0F731127E02E8C8DE8120CC00FB6BF
:1007600007FCFACFE889F989808185FFF5CFCE01B2
:100770000E947103F1CF8B8DFE01E80FF11DE35A4A
:10078000FF4FF0820B8FEA89FB898081806207C06E
:10079000EE89FF896083E889F9898081806480839C
:1007A00081E090E0DF91CF911F910F91FF90EF904A
:1007B0000895CF93DF93EC01888D8823C9F0EA89EF
:1007C000FB89808185FD05C0A889B9898C9186FD4A
:1007D0000FC00FB607FCF5CF808185FFF2CFA88947
:1007E000B9898C9185FFEDCFCE010E947103E7CFCF
:1007F000DF91CF91089580E090E0892B29F00E944D
:10080000670381110C94000008958FB7F8948091CC
:1008100096018FBF08958EBD00000DB407FEFDCF79
:100820008EB508958CBD9DBD08950F931F93CF93F2
:10083000DF93082F162F80914302909144020E946B
:100840001204CEE4D2E060E08C810E941402802F7A
:1008500080680E940B04812F0E940B0461E08C8150
:10086000DF91CF911F910F910C941402009769F0C2
:10087000FC0101900020E9F73197AF01481B590BAB
:10088000BC0186EA91E00C94FB0280E090E00895C0
:10089000CF93DF930E943604EC0188E191E00E943F
:1008A00036048C0F9D1FDF91CF9108950E94E209BD
:1008B0001F920F920FB60F9211242F933F938F9395
:1008C0009F93AF93BF9380919E0190919F01A091C0
:1008D000A001B091A10130919D0123E0230F2D379C
:1008E00020F40196A11DB11D05C026E8230F029634
:1008F000A11DB11D20939D0180939E0190939F01A6
:10090000A093A001B093A1018091A2019091A301B5
:10091000A091A401B091A5010196A11DB11D8093E4
:10092000A2019093A301A093A401B093A501BF914C
:10093000AF919F918F913F912F910F900FBE0F908C
:100940001F9018951F920F920FB60F9211242F939C
:100950003F934F935F936F937F938F939F93AF9347
:10096000BF93EF93FF9386EA91E00E947103FF919A
:10097000EF91BF91AF919F918F917F916F915F9117
:100980004F913F912F910F900FBE0F901F90189590
:100990001F920F920FB60F9211242F938F939F9354
:1009A000EF93FF93E091B601F091B7018081E09160
:1009B000BC01F091BD0182FD12C090818091BF0108
:1009C0008F5F8F732091C001821751F0E091BF01BA
:1009D000F0E0EA55FE4F958F8093BF0101C0808102
:1009E000FF91EF919F918F912F910F900FBE0F90DC
:1009F0001F9018951F920F920FB60F9211240F900F
:100A00000FBE0F901F901895CF93DF93E6EAF1E0A9
:100A10001382128288EE93E0A0E0B0E08483958395
:100A2000A683B7838AE091E09183808385EC90E090
:100A30009587848784EC90E09787868780EC90E0A8
:100A4000918B808B81EC90E0938B828B82EC90E099
:100A5000958B848B86EC90E0978B868B118E128E13
:100A6000138E148EE3E4F2E080E5808311828FEF31
:100A70009FEF9093460280934502EEE4F2E082E01D
:100A800085838AE0848389E08683C9E4D2E08CE0B0
:100A90008A831C828CE090E00E94B5089983888349
:100AA0001B8285E090E09093480280934702DF919B
:100AB000CF910895CF93DF93CDB7DEB7A1970FB64F
:100AC000F894DEBF0FBECDBF789484B5826084BD3C
:100AD00084B5816084BD85B5826085BD85B5816042
:100AE00085BD80916E00816080936E0010928100C0
:100AF000809181008260809381008091810081607B
:100B0000809381008091800081608093800080913B
:100B1000B10084608093B1008091B00081608093C7
:100B2000B00080917A00846080937A0080917A008E
:100B3000826080937A0080917A00816080937A004D
:100B400080917A00806880937A001092C100E091D1
:100B5000B601F091B70182E08083E091B201F0919B
:100B6000B3011082E091B401F091B5018FEC808364
:100B70001092BE01E091BA01F091BB0186E0808342
:100B8000E091B801F091B901808180618083E091AA
:100B9000B801F091B901808188608083E091B8014B
:100BA000F091B901808180688083E091B801F09173
:100BB000B90180818F7D80838BE191E00E944804A0
:100BC0008AE291E00E943604109256021092580276
:100BD0001092570281E08093550284E78093590276
:100BE00082E780935A0284E080935B021FB7F894F7
:100BF00080919701811127C0E6E8F0E08491EAE94D
:100C0000F0E09491E82FF0E0EE0FFF1FE859FF4F5E
:100C1000A591B491EC91E92321F461E08AE00E946E
:100C2000140261E08AE00E9460028CB580618CBD94
:100C30008CB580648CBD61E08DE00E94600261E053
:100C40008BE00E946002809197018F5F80939701F3
:100C50001FBF61E0809152020E94600260E08091BB
:100C600053020E946002809154021816C4F461E09D
:100C70000E94600260E0809154020E94140260E0D1
:100C800070E0CB010E94C10261E0809154020E9499
:100C9000140265E070E080E090E00E94C102809163
:100CA0004302909144020E94120460E0809152023B
:100CB0000E94140282E40E940B0480E00E940B0454
:100CC000182F61E0809152020E941402123109F043
:100CD0000BC160E081E00E94150460E881E00E94A1
:100CE00015046FEF89E00E94150465E28FE10E9410
:100CF000150460E080E20E94150468E081E20E9431
:100D000015046CE086E20E94150464E389E30E9406
:100D1000150467E283E30E9415046DE18BE30E94F2
:100D2000150460E88EE00E94150460E08FE00E94E8
:100D300015041092500210924F0210924E028BE353
:100D400091E00E944804DD24D394EE24E394F12C36
:100D50009AE0892E912CA12CB12C27E4C22E8091EF
:100D60009B0190919C010097D1F0019709F0B9C0C7
:100D700061E08DE00E94140287E591E00E94480442
:100D80008CE691E00E94360420914F02309150028F
:100D900040E050E019A28E010F5D1F4F30C08FE37D
:100DA00091E00E94480481E591E00E944804D092BD
:100DB000980160E177E280E090E00E94C1028091BA
:100DC000990190919A01019690939A0180939901CB
:100DD000109298018AE491E00E94480420919901C0
:100DE00030919A0180914702909148022817390763
:100DF0000CF477C0F0929C01E0929B0172C0CA0192
:100E0000B901A50194010E947F07605DF80162931A
:100E10008F01211531054105510589F7CF010E9448
:100E2000360488E191E00E94360410924C0220E0E2
:100E300030E048EC51E461E087E60E9488002DEC48
:100E40003CEC4CE45FE362E088E60E948800C092DC
:100E50007C0080917A00806480937A0080917A008F
:100E600086FDFCCF609178008091790070E0782B4E
:100E7000072E000C880B990B0E94EE099B01AC0118
:100E80000E94A80720E030E040EA50E40E944D0AAA
:100E900020E030E040E85AE30E944D0A20E030E0D4
:100EA00040E251E40E9414089B01AC0163E084E736
:100EB0000E94880080914F02909150020196909379
:100EC000500280934F0268EE73E080E090E00E9451
:100ED000C10260E08DE00E94140210929C01109209
:100EE0009B010E94FB033BCF8CE791E00E944804EA
:100EF00026CF8091490290914A020C944A09A1E2BE
:100F00001A2EAA1BBB1BFD010DC0AA1FBB1FEE1F83
:100F1000FF1FA217B307E407F50720F0A21BB30BCE
:100F2000E40BF50B661F771F881F991F1A9469F74A
:100F300060957095809590959B01AC01BD01CF01A6
:100F40000895EE0FFF1F0590F491E02D099450587D
:100F5000BB27AA270E94BF070C94D10A0E94C30A8C
:100F600038F00E94CA0A20F039F49F3F19F426F4A1
:100F70000C94C00A0EF4E095E7FB0C94BA0AE92F32
:100F80000E94E20A58F3BA176207730784079507AD
:100F900020F079F4A6F50C94040B0EF4E0950B2EDA
:100FA000BA2FA02D0B01B90190010C01CA01A001BB
:100FB0001124FF27591B99F0593F50F4503E68F116
:100FC0001A16F040A22F232F342F4427585FF3CF57
:100FD000469537952795A795F0405395C9F77EF428
:100FE0001F16BA0B620B730B840BBAF09150A1F071
:100FF000FF0FBB1F661F771F881FC2F70EC0BA0FF7
:10100000621F731F841F48F4879577956795B7957E
:10101000F7959E3F08F0B0CF9395880F08F0992779
:10102000EE0F9795879508950E9428080C94D10A91
:101030000E94CA0A58F00E94C30A40F029F45F3F98
:1010400029F00C94BA0A51110C94050B0C94C00AA7
:101050000E94E20A68F39923B1F3552391F3951B9B
:10106000550BBB27AA2762177307840738F09F5FC9
:101070005F4F220F331F441FAA1FA9F335D00E2E36
:101080003AF0E0E832D091505040E695001CCAF7A3
:101090002BD0FE2F29D0660F771F881FBB1F261766
:1010A00037074807AB07B0E809F0BB0B802DBF013D
:1010B000FF2793585F4F3AF09E3F510578F00C940C
:1010C000BA0A0C94050B5F3FE4F3983ED4F386957F
:1010D00077956795B795F7959F5FC9F7880F911D2D
:1010E0009695879597F90895E1E0660F771F881F19
:1010F000BB1F621773078407BA0720F0621B730BCC
:10110000840BBA0BEE1F88F7E09508950E94EA0A57
:1011100088F09F5798F0B92F9927B751B0F0E1F0B8
:10112000660F771F881F991F1AF0BA95C9F714C068
:10113000B13091F00E94040BB1E008950C94040BBF
:10114000672F782F8827B85F39F0B93FCCF38695A1
:1011500077956795B395D9F73EF4909580957095FE
:1011600061957F4F8F4F9F4F0895CF93DF938230CC
:10117000910510F482E090E0E0915E02F0915F0250
:1011800020E030E0C0E0D0E0309711F140815181A3
:1011900048175907C0F04817590761F482819381B5
:1011A000209719F09B838A832BC090935F028093D2
:1011B0005E0226C02115310519F04217530718F4B5
:1011C0009A01BE01DF01EF010280F381E02DDCCF47
:1011D0002115310509F1281B390B2430310590F414
:1011E00012968D919C9113976115710521F0FB0169
:1011F0009383828304C090935F0280935E02FD011B
:10120000329644C0FD01E20FF31F81939193225067
:1012100031092D933C933AC020915C0230915D02DC
:10122000232B41F4209102013091030130935D02A0
:1012300020935C02209100013091010121153105BC
:1012400041F42DB73EB74091040150910501241B94
:10125000350BE0915C02F0915D02E217F307A0F418
:101260002E1B3F0B2817390778F0AC014E5F5F4FFC
:101270002417350748F04E0F5F1F50935D024093CF
:101280005C028193919302C0E0E0F0E0CF01DF9136
:10129000CF9108950F931F93CF93DF93009709F495
:1012A0008CC0FC0132971382128200915E02109171
:1012B0005F020115110581F420813181820F931F96
:1012C00020915C0230915D022817390779F5F0937F
:1012D0005D02E0935C0271C0D80140E050E0AE17BF
:1012E000BF0750F412962D913C911397AD01211533
:1012F000310509F1D901F3CF9D01DA01338322834E
:1013000060817181860F971F8217930769F4EC0142
:1013100028813981260F371F2E5F3F4F318320836D
:101320008A819B8193838283452B29F4F0935F020A
:10133000E0935E0242C01396FC93EE931297ED0188
:10134000499159919E01240F351FE217F30771F45B
:1013500080819181840F951F029611969C938E93A4
:101360008281938113969C938E931297E0E0F0E034
:10137000D80112968D919C911397009719F0F8015E
:101380008C01F6CF8D919C9198012E5F3F4F820F7B
:10139000931F20915C0230915D022817390769F490
:1013A000309729F410925F0210925E0202C01382FD
:1013B000128210935D0200935C02DF91CF911F9126
:1013C0000F91089581E090E0F8940C940B0B0E942B
:1013D000290A08F481E00895E89409C097FB3EF4D7
:1013E00090958095709561957F4F8F4F9F4F992372
:1013F000A9F0F92F96E9BB279395F69587957795F0
:101400006795B795F111F8CFFAF4BB0F11F460FFAF
:101410001BC06F5F7F4F8F4F9F4F16C0882311F007
:1014200096E911C0772321F09EE8872F762F05C01B
:10143000662371F096E8862F70E060E02AF09A95B6
:10144000660F771F881FDAF7880F9695879597F9AB
:101450000895990F0008550FAA0BE0E8FEEF161645
:101460001706E807F907C0F012161306E407F50798
:1014700098F0621B730B840B950B39F40A2661F00C
:10148000232B242B252B21F408950A2609F4A140AF
:10149000A6958FEF811D811D08950E94600A0C940E
:1014A000D10A0E94C30A38F00E94CA0A20F095238C
:1014B00011F00C94BA0A0C94C00A11240C94050B78
:1014C0000E94E20A70F3959FC1F3950F50E0551FFB
:1014D000629FF001729FBB27F00DB11D639FAA2789
:1014E000F00DB11DAA1F649F6627B00DA11D661FD8
:1014F000829F2227B00DA11D621F739FB00DA11DF9
:10150000621F839FA00D611D221F749F3327A00DB2
:10151000611D231F849F600D211D822F762F6A2F4E
:1015200011249F5750409AF0F1F088234AF0EE0FB3
:10153000FF1FBB1F661F771F881F91505040A9F7E0
:101540009E3F510580F00C94BA0A0C94050B5F3F46
:10155000E4F3983ED4F3869577956795B795F7951C
:10156000E7959F5FC1F7FE2B880F911D9695879594
:1015700097F9089597F99F6780E870E060E0089513
:101580009FEF80EC089500240A941616170618069B
:101590000906089500240A94121613061406050677
:1015A0000895092E0394000C11F4882352F0BB0F08
:1015B00040F4BF2B11F460FF04C06F5F7F4F8F4F6B
:1015C0009F4F089557FD9058440F551F59F05F3FA6
:1015D00071F04795880F97FB991F61F09F3F79F055
:1015E00087950895121613061406551FF2CF4695D7
:1015F000F1DF08C0161617061806991FF1CF869559
:101600007105610508940895E894BB27662777273C
:10161000CB0197F9089510E0CDE5D0E004C0FE01BC
:101620000E94A1072196CE35D107C9F7F894FFCFC4
:10163000000060028000000000009203FB022A0309
:10164000D9035B0339034D030D0A005365726961C9
:101650006C20737461727465640053746172746990
:101660006E67204C6F52612E2E2E00204F4B006D66
:101670006561737572652E2E2E00656E64206F662F
:1016800020736C6565700053656E64696E67204CED
:101690006F526120446174612E2E2E004672616D7E
:1016A0006520436F756E7465723A20004661696CFF
:1016B00065643A20436865636B20796F75722072A8
:0616C0006164696F000087
:00000001FF
