:100000000C94EE000C9416010C9416010C9416013D
:100010000C9416010C9416010C94EF020C9416012A
:100020000C9416010C9416010C9416010C941601F4
:100030000C9416010C9416010C9416010C941601E4
:100040000C9474060C9416010C94AD020C94870267
:100050000C9416010C9416010C9416010C941601C4
:100060000C9416010C9416010000000023002600D9
:100070002900E1F9C0E2068CE21359E22026E22CC5
:10008000F3E239C0E2468CE253590000000024003C
:1000900027002A0000000000250028002B0004048F
:1000A0000404040404040202020202020303030320
:1000B00003030102040810204080010204081020FC
:1000C00001020408102000000008000201000003E3
:1000D00004070000000000000000637C777BF26BE7
:1000E0006FC53001672BFED7AB76CA82C97DFA593E
:1000F00047F0ADD4A2AF9CA472C0B7FD9326363FA3
:10010000F7CC34A5E5F171D8311504C723C318968F
:10011000059A071280E2EB27B27509832C1A1B6E31
:100120005AA0523BD6B329E32F8453D100ED20FCD3
:10013000B15B6ACBBE394A4C58CFD0EFAAFB434DD6
:10014000338545F9027F503C9FA851A3408F929D73
:1001500038F5BCB6DA2110FFF3D2CD0C13EC5F9763
:100160004417C4A77E3D645D197360814FDC222A69
:10017000908846EEB814DE5E0BDBE0323A0A4906A0
:10018000245CC2D3AC629195E479E7C8376D8DD514
:100190004EA96C56F4EA657AAE08BA78252E1CA6EC
:1001A000B4C6E8DD741F4BBD8B8A703EB56648034C
:1001B000F60E613557B986C11D9EE1F8981169D9CF
:1001C0008E949B1E87E9CE5528DF8CA1890DBFE652
:1001D000426841992D0FB054BB16860A11241FBEE8
:1001E000CFEFD8E0DEBFCDBF11E0A0E0B1E0E2E2AA
:1001F000FBE102C005900D92AC3BB107D9F722E0BC
:10020000ACEBB1E001C01D92AF37B207E1F710E0EF
:10021000CEEED0E004C02197FE010E94E80ACD3E58
:10022000D107C9F70E94BE060C948F0D0C940000F4
:10023000CF92DF92EF92FF920F931F93CF93DF93B2
:100240006C017A018B01C0E0D0E0CE15DF0589F0AA
:10025000D8016D918D01D601ED91FC910190F08155
:10026000E02DC6010995892B11F47E0102C021966B
:10027000ECCFC701DF91CF911F910F91FF90EF90CD
:10028000DF90CF900895089580E090E00895FC01FC
:10029000538D448D252F30E0842F90E0821B930BEB
:1002A000541710F0CF96089501970895FC01918D91
:1002B000828D981761F0828DDF01A80FB11D5D96C8
:1002C0008C91928D9F5F9F73928F90E008958FEF36
:1002D0009FEF0895FC01918D828D981731F0828DEA
:1002E000E80FF11D858D90E008958FEF9FEF089541
:1002F000FC01918D228D892F90E0805C9F4F821BA5
:1003000091098F739927089587EC91E00E947801F5
:1003100021E0892B09F420E0822F0895FC01848DCF
:10032000DF01A80FB11DA35ABF4F2C91848D90E01F
:1003300001968F739927848FA689B7892C93A089FA
:10034000B1898C9180648C93938D848D981306C0B1
:100350000288F389E02D80818F7D80830895EF925C
:10036000FF920F931F93CF93DF93EC0181E0888F6F
:100370009B8D8C8D981305C0E889F989808185FD56
:1003800024C0F62E0B8D10E00F5F1F4F0F73112747
:10039000E02E8C8DE8120CC00FB607FCFACFE8896E
:1003A000F989808185FFF5CFCE010E948E01F1CFC2
:1003B0008B8DFE01E80FF11DE35AFF4FF0820B8F8A
:1003C000EA89FB898081806207C0EE89FF896083AA
:1003D000E889F98980818064808381E090E0DF9101
:1003E000CF911F910F91FF90EF900895CF93DF93DE
:1003F000EC01888D8823C9F0EA89FB89808185FD1D
:1004000005C0A889B9898C9186FD0FC00FB607FC7D
:10041000F5CF808185FFF2CFA889B9898C9185FFBE
:10042000EDCFCE010E948E01E7CFDF91CF910895ED
:1004300080E090E0892B29F00E94840181110C94C6
:10044000000008950E948A0DCF92DF92EF92FF92F2
:100450000F931F93CF93DF9300D0CDB7DEB7AE01DC
:100460004F5F5F4F0E94B30C6B017C0120E030E0D6
:10047000A9010E945B0B87FF07C0F7FAF094F7F819
:10048000F09400E010E802C000E010E089819A8159
:100490000F9697FD03C09A83898302C01A8219823E
:1004A0004BE050E0C701B6010E94D20C20E030E0E2
:1004B00040E05FE30E94EF0A0E94D20B611588E0E2
:1004C000780738F089819A8101969A83898360E060
:1004D00074E029813A812031310524F0C8018F6F01
:1004E0009F670AC0322F2227330F330F330F202B81
:1004F000312BC901862B972B0F900F90DF91CF9155
:100500001F910F91FF90EF90DF90CF9008951F9271
:100510000F920FB60F9211242F933F934F935F9337
:100520006F937F938F939F93AF93BF93EF93FF93BB
:1005300087EC91E00E948E01FF91EF91BF91AF9106
:100540009F918F917F916F915F914F913F912F91EB
:100550000F900FBE0F901F9018951F920F920FB61D
:100560000F9211242F938F939F93EF93FF93E0911A
:10057000D701F091D8018081E091DD01F091DE0199
:1005800082FD12C090818091E0018F5F8F73209176
:10059000E101821751F0E091E001F0E0E953FE4FF4
:1005A000958F8093E00101C08081FF91EF919F9131
:1005B0008F912F910F900FBE0F901F9018958FB7AE
:1005C000F8948091BD018FBF08958EBD00000DB4D9
:1005D00007FEFDCF8EB508958CBD9DBD08951F9279
:1005E0000F920FB60F9211240F900FBE0F901F9015
:1005F0001895CF93DF93EC0120E030E0DB01A20FF0
:10060000B31FF901EE0FFF1FEE0FFF1FEC0FFD1FD1
:1006100090E041918C9148274C939F5F14969430C1
:10062000C1F72F5F3F4F2430310541F7DF91CF9164
:100630000895EF92FF921F93CF93DF9300D000D0E5
:10064000CDB7DEB7DB0191E02BE1813041F0392FEE
:100650003078990F303809F492278150F6CF1D96E3
:10066000EC911D978E2F8F70E295EF7020E1E29F45
:10067000F0011124E80FF11DE652FF4F84911E9600
:10068000EC911E972E2F2F70E295EF7030E1E39FD3
:10069000F0011124E20FF11DE652FF4FE491EA83CD
:1006A0001F96EC911F972E2F2F70E295EF7030E17F
:1006B000E39FF0011124E20FF11DE652FF4FE49198
:1006C000EB831C96EC911C972E2F2F70E295EF7008
:1006D00030E1E39FF0011124E20FF11DE652FF4FDC
:1006E000E491EC838927898320E030E0BE016F5FCD
:1006F0007F4F54E0560FF901EE0FFF1FEE0FFF1F63
:100700007F01EA0EFB1ECB01FC011081F701408145
:10071000412741937F01FC014193CF015E13F4CF48
:100720002F5F3F4F2430310531F70F900F900F901E
:100730000F90DF91CF911F91FF90EF9008953FB7F9
:10074000F8948091790290917A02A0917B02B09105
:100750007C0226B5A89B05C02F3F19F00196A11D6C
:10076000B11D3FBFBA2FA92F982F8827820F911D47
:10077000A11DB11DBC01CD0142E0660F771F881F8E
:10078000991F4A95D1F70895009769F0FC010190EF
:100790000020E9F73197AF01481B590BBC0187ECEA
:1007A00091E00C94180180E090E008958F929F9260
:1007B000AF92BF920F931F93CF93DF93CDB7DEB766
:1007C000A1970FB6F894DEBF0FBECDBF19A242307D
:1007D00008F44AE08E010F5D1F4F842E912CA12C4E
:1007E000B12CA50194010E94C60AE62FB901CA01E5
:1007F00001501109EA3014F4E05D01C0E95CD80150
:10080000EC93232B242B252B61F7C8010E94C403F2
:10081000A1960FB6F894DEBF0FBECDBFDF91CF918A
:100820001F910F91BF90AF909F908F900895CF939D
:10083000DF930E94C403EC0180E991E00E94C403AD
:100840008C0F9D1FDF91CF9108954F925F927F9201
:100850008F929F92AF92BF92CF92DF92EF92FF92D0
:100860000F931F93CF93DF93CDB7DEB7A9970FB642
:10087000F894DEBF0FBECDBF6C0180E090E08E012A
:100880000F5F1F4FDC01AA0FBB1FAA0FBB1FAC0DD0
:10089000BD1D20E030E0FD90A901480F591F400F19
:1008A000511FFA01F0822C5F3F4F2031310599F73B
:1008B00001968430910531F780E1FB01DE0151960C
:1008C00001900D928A95E1F7B801CE0141960E9400
:1008D000F90221E034E0932E900E4BE1842E780152
:1008E000C801702EDC0130E0EC914E2F4F70E29584
:1008F000EF7050E1E59FF0011124E40FF11DE65285
:10090000FF4FE491EC933F5F1496343069F7019602
:100910009812E8CF8D819E819D839F819E839885CB
:100920009F83888789859B8599878B878A859C8506
:100930009A878C8788899F85988B9E859F879D85C0
:100940009E878D87CE010D962801BE016B5D7F4F7E
:10095000FE01B19640E050E05201A40EB51ED50153
:10096000BC90DB01BD92BD013B2D330FB7FC382598
:1009700030834C5F5F4F31964031510569F76EA16E
:1009800049A146277FA1B8A43AA137273B25532F79
:100990005427F20151932F01ADA05BA1FC013897C0
:1009A0003A25352730833CA134966B256A25562796
:1009B000532750837A2537274327DC014D93CD01F8
:1009C0009410C3CFBE016F5E7F4F822F29A70E9474
:1009D0001903B801CE0141960E94F90229A52F5FA3
:1009E0002A3009F07CCF94E0970DD70180E0EC919C
:1009F0002E2F2F70E295EF7030E1E39FF00111246C
:100A0000E20FF11DE652FF4FE491EC938F5F1496D5
:100A1000843069F75FEFE51AF50A9E11E6CF8D8104
:100A20009E819D839F819E8398859F8388878985EA
:100A30009B8599878B878A859C859A878C878889EF
:100A40009F85988B9E859F879D859E878D87BE01FC
:100A50006F5E7F4F8AE00E941903B801CE01419674
:100A60000E94F90280E090E0FC01EE0FFF1FEE0F04
:100A7000FF1FEC0DFD1D20E030E0D901A80FB91FCC
:100A8000A00FB11F4C9141932C5F3F4F2031310596
:100A9000A1F701968430910539F7A9960FB6F8941D
:100AA000DEBF0FBECDBFDF91CF911F910F91FF90A1
:100AB000EF90DF90CF90BF90AF909F908F907F90FE
:100AC0005F904F900895FC019C01205F3F4FDB0138
:100AD0008D91BD01908189278193E217F307B9F7C2
:100AE0000895FC0120E02F3031F09181892F881F7B
:100AF0008827881F01C080E09081990F980F9193FB
:100B00002F5F203181F70895833081F028F4813000
:100B100099F08230A1F008958730A9F08830B9F0BB
:100B20008430D1F4809180008F7D03C0809180005B
:100B30008F7780938000089584B58F7702C084B545
:100B40008F7D84BD08958091B0008F7703C0809120
:100B5000B0008F7D8093B00008951F93CF93DF93F3
:100B6000282F30E0F901EA53FF4F8491F901EE5448
:100B7000FF4FD491F901E256FF4FC491CC23C9F045
:100B8000162F81110E948405EC2FF0E0EE0FFF1F5D
:100B9000EC56FF4FA591B4918FB7F894111105C091
:100BA0009C91ED2FE095E92302C0EC91ED2BEC93A5
:100BB0008FBFDF91CF911F9108950F931F93CF9314
:100BC000DF93082F162F80916402909165020E9496
:100BD000EC02C6E6D2E060E08C810E94AD05802F79
:100BE00080680E94E502812F0E94E50261E08C810D
:100BF000DF91CF911F910F910C94AD05CF93DF93AF
:100C000090E0FC01EE54FF4F2491FC01E256FF4FAF
:100C10008491882361F190E0880F991FFC01E657C9
:100C2000FF4FC591D491FC01EC56FF4FA591B491B3
:100C3000611109C09FB7F894888120958223888329
:100C4000EC912E230BC0623061F49FB7F894388189
:100C5000822F809583238883EC912E2B2C939FBF2A
:100C600006C08FB7F894E8812E2B28838FBFDF91C1
:100C7000CF9108958F929F92AF92BF92CF92DF92C1
:100C8000EF92FF926B017C010E949F034B015C017C
:100C9000C114D104E104F104F1F00E949F03DC01CE
:100CA000CB0188199909AA09BB09883E9340A1057F
:100CB000B10570F321E0C21AD108E108F10888EE0D
:100CC000880E83E0981EA11CB11CC114D104E1045C
:100CD000F10419F7DDCFFF90EF90DF90CF90BF9038
:100CE000AF909F908F9008951F920F920FB60F9222
:100CF00011242F933F938F939F93AF93BF93809132
:100D0000750290917602A0917702B09178023091AD
:100D1000740223E0230F2D3720F40196A11DB11D8D
:100D200005C026E8230F0296A11DB11D2093740271
:100D30008093750290937602A0937702B093780225
:100D40008091790290917A02A0917B02B0917C020D
:100D50000196A11DB11D8093790290937A02A09310
:100D60007B02B0937C02BF91AF919F918F913F9195
:100D70002F910F900FBE0F901F901895CF93DF9378
:100D8000CDB7DEB7C859D1090FB6F894DEBF0FBE94
:100D9000CDBF789484B5826084BD84B5816084BD04
:100DA00085B5826085BD85B5816085BD80916E0009
:100DB000816080936E00109281008091810082603A
:100DC0008093810080918100816080938100809177
:100DD00080008160809380008091B1008460809366
:100DE000B1008091B00081608093B00080917A0062
:100DF000846080937A0080917A00826080937A0088
:100E000080917A00816080937A0080917A00806876
:100E100080937A001092C100E091D701F091D8013F
:100E200082E08083E091D301F091D4011082E091BF
:100E3000D501F091D6018FEC80831092DF01E09113
:100E4000DB01F091DC0186E08083E091D901F09133
:100E5000DA01808180618083E091D901F091DA012B
:100E6000808188608083E091D901F091DA018081EE
:100E700080688083E091D901F091DA0180818F7DD3
:100E8000808383E391E00E94170482E491E00E9452
:100E9000C40310926E021092700210926F0281E0F1
:100EA00080936D0284EC8093710282E780937202DA
:100EB0008CE0809373021FB7F8948091BE0181117A
:100EC00027C0E8EAF0E08491ECEBF0E09491E82FA1
:100ED000F0E0EE0FFF1FE657FF4FA591B491EC91A4
:100EE000E92321F461E08AE00E94AD0561E08AE037
:100EF0000E94FE058CB580618CBD8CB580648CBD74
:100F000061E08DE00E94FE0561E08BE00E94FE053D
:100F10008091BE018F5F8093BE011FBF61E0809111
:100F20006A020E94FE0560E080916B020E94FE054D
:100F300080916C021816C4F461E00E94FE0560E026
:100F400080916C020E94AD0560E070E0CB010E94D0
:100F50003A0661E080916C020E94AD0565E070E0A8
:100F600080E090E00E943A068091640290916502D0
:100F70000E94EC0260E080916A020E94AD0582E46A
:100F80000E94E50280E00E94E502182F61E0809156
:100F90006A020E94AD05123109F0AFC260E081E043
:100FA0000E94DD0560E881E00E94DD056FEF89E0C9
:100FB0000E94DD0565E28FE10E94DD0560E080E2D0
:100FC0000E94DD0568E081E20E94DD056CE086E2BA
:100FD0000E94DD0564E389E30E94DD0567E283E3A7
:100FE0000E94DD056DE18BE30E94DD0560E88EE087
:100FF0000E94DD0560E08FE00E94DD05109268022E
:10100000109267021092660283E591E00E94170435
:101010005E0181E9A80EB11C96E09A0DC956DF4F1A
:101020009883C759D0406E01A1E6CA0ED11C4E016B
:10103000B1E58B0E911C8E010F571F4FE0E1E00FC1
:10104000C856DF4FE883C859D0408091C5019091C0
:10105000C601009719F1019709F04CC261E08DE0DB
:101060000E94AD0581E791E00E94170489E1809319
:10107000BF011092C0016DEC7CEC8CE49FE30E94F8
:1010800024028093C1019093C20187E480937C0085
:1010900080917A00806480937A001DC087E591E09A
:1010A0000E94170460E08DE00E94AD0560E177E2E8
:1010B00080E090E00E943A0661E08DE00E94AD057C
:1010C00084E691E00E94170481E090E09093C601CD
:1010D0008093C5010FC280917A0086FDFCCF60919C
:1010E00078008091790070E0782B072E000C880B37
:1010F000990B0E94030C9B01AC010E94EF0A20E0B7
:1011000030E040EA50E40E94080D20E030E040E882
:101110005AE30E94080D20E030E040E251E40E94D2
:10112000600B2B013C0120E030E040E85FEB0E94C7
:101130005B0B18167CF420E030E040E85FE3C3016D
:10114000B2010E94C90C87FF08C0C301B2010E940E
:10115000240205C08FEF9FEF02C08FEF9FE78093BF
:10116000C3019093C40186E891E00E94C4035FEB41
:10117000E52E51E0F52E3701D3016D913D0170E070
:1011800080E090E040E10E94D6038EE891E00E946A
:10119000C403B5EC6B16B1E07B0671F780E991E012
:1011A0000E94C40383E991E00E94C4036091670236
:1011B0007091680280E090E04AE00E94D60380E9E6
:1011C00091E00E94C4032090670230906802F5010C
:1011D000D7018D917D018193B5ECEB16B1E0FB0653
:1011E000B9F781E089831A821B821C821D821E82CC
:1011F00091EB9F8392E19887898796E29A872B8665
:101200003C861D861E861F86888B60E171E0CE01BC
:1012100001960E942504DE011196F5018D919081C1
:1012200089278193C956DF4F8881C759D0408E13D3
:10123000F5CF80E4898381EB8A8382E18B8381E02F
:101240008C8396E29D831E822F8238868987DE01F9
:101250001A96F50186E08A0D91919D938E13FCCF2D
:101260002E0191E7490E511C80E1D201E82F1D9219
:10127000EA95E9F7D601E82F1D92EA95E9F7D4013E
:10128000E82F1D92EA95E9F77E01F1E4EF0EF11CDB
:10129000D7011D928A95E9F789E4F80180831182CC
:1012A000128213821482158281EB868382E1878306
:1012B00081E0808786E281872286338614861586C0
:1012C00016868FE0878760E071E0C2010E942504E6
:1012D000D2013C90C2010E94710537FE05C0F201A7
:1012E000978587E889278787F601D20180E1840DF9
:1012F0009D9191938A13FCCFD6015C90C6010E9408
:10130000710557FE05C0F601978587E8892787870D
:1013100060E071E0C8010E942504D401F8018191C8
:101320008D93C856DF4F8881C859D0408E13F7CFB0
:10133000F701AE014F5F5F4F80E090E88F3009F416
:10134000E1C0DA012D91AD0120838F5F31968031AC
:10135000A9F7B601C7010E946305B401C7010E9445
:10136000630560E071E0C7010E942504F701308148
:10137000218192818381482F477040936902492FD0
:10138000477040936602388B298B9A8B8B8B61E870
:1013900081E00E94DD056AE070E080E090E00E945C
:1013A0003A0660E480E40E94DD0580916D028823A6
:1013B00041F1E0916902F0E0BF01660F771FE60F8F
:1013C000F71FEE58FF4F649186E00E94DD05E09123
:1013D0006902F0E0BF01660F771FE60FF71FED58B7
:1013E000FF4F649187E00E94DD05E0916902F0E023
:1013F000BF01660F771FE60FF71FEC58FF4F649190
:101400000CC060916E0286E00E94DD0560916F0263
:1014100087E00E94DD056091700288E00E94DD0592
:10142000609171028EE10E94DD05609172028DE192
:101430000E94DD056091730286E20E94DD0563E192
:1014400082E20E94DD0560E88DE00E94DD05CE01AC
:1014500001967C0193E1592E5E0CD7016D917D01BF
:1014600080E00E94DD055E10F8CF63E881E00E9415
:10147000DD0520916B0230E0B9016A537F4FA9016D
:101480004E545F4F22563F4FFB018491FA01F49076
:10149000F901E490EE20C1F381110E948405EE2D44
:1014A000F0E0EE0FFF1FE859FF4FA591B4918C912A
:1014B000F822F9F260E081E00E94DD050FB6F894B1
:1014C000DEBF0FBECDBF809167029091680201968A
:1014D000909368028093670268EE73E080E090E08A
:1014E0000E943A0660E08DE00E94AD051092C601B0
:1014F0001092C5010E941802A8CD83EA91E00E94D3
:10150000170482CDD7011F969C931FCFE7ECF1E023
:101510001382128288EE93E0A0E0B0E0848395838A
:10152000A683B78385E291E09183808385EC90E088
:101530009587848784EC90E09787868780EC90E09D
:10154000918B808B81EC90E0938B828B82EC90E08E
:10155000958B848B86EC90E0978B868B118E128E08
:10156000138E148EE4E6F2E080E5808311828FEF23
:101570009FEF90937E0280937D02E6E6F2E082E0A8
:1015800085838AE0848389E086830895A1E21A2E08
:10159000AA1BBB1BFD010DC0AA1FBB1FEE1FFF1F17
:1015A000A217B307E407F50720F0A21BB30BE40B67
:1015B000F50B661F771F881F991F1A9469F76095AE
:1015C0007095809590959B01AC01BD01CF01089568
:1015D000EE0FFF1F0590F491E02D09945058BB27A2
:1015E000AA270E94060B0C94790C0E946B0C38F011
:1015F0000E94720C20F039F49F3F19F426F40C94E9
:10160000680C0EF4E095E7FB0C94620CE92F0E9445
:101610008A0C58F3BA17620773078407950720F0FE
:1016200079F4A6F50C94AC0C0EF4E0950B2EBA2FC1
:10163000A02D0B01B90190010C01CA01A0011124D8
:10164000FF27591B99F0593F50F4503E68F11A1684
:10165000F040A22F232F342F4427585FF3CF469515
:1016600037952795A795F0405395C9F77EF41F1637
:10167000BA0B620B730B840BBAF09150A1F0FF0F01
:10168000BB1F661F771F881FC2F70EC0BA0F621FED
:10169000731F841F48F4879577956795B795F795DD
:1016A0009E3F08F0B0CF9395880F08F09927EE0F72
:1016B0009795879508950E943E0C08F481E008955F
:1016C0000E94740B0C94790C0E94720C58F00E94CA
:1016D0006B0C40F029F45F3F29F00C94620C51111F
:1016E0000C94AD0C0C94680C0E948A0C68F399233E
:1016F000B1F3552391F3951B550BBB27AA2762170E
:101700007307840738F09F5F5F4F220F331F441F1A
:10171000AA1FA9F335D00E2E3AF0E0E832D091504E
:101720005040E695001CCAF72BD0FE2F29D0660F3B
:10173000771F881FBB1F261737074807AB07B0E87E
:1017400009F0BB0B802DBF01FF2793585F4F3AF084
:101750009E3F510578F00C94620C0C94AD0C5F3FE9
:10176000E4F3983ED4F3869577956795B795F7950A
:101770009F5FC9F7880F911D9695879597F90895F2
:10178000E1E0660F771F881FBB1F6217730784078E
:10179000BA0720F0621B730B840BBA0BEE1F88F79D
:1017A000E09508950E94920C88F09F5798F0B92F09
:1017B0009927B751B0F0E1F0660F771F881F991F86
:1017C0001AF0BA95C9F714C0B13091F00E94AC0C70
:1017D000B1E008950C94AC0C672F782F8827B85F80
:1017E00039F0B93FCCF3869577956795B395D9F7DE
:1017F0003EF490958095709561957F4F8F4F9F4FE8
:101800000895E89409C097FB3EF4909580957095F3
:1018100061957F4F8F4F9F4F9923A9F0F92F96E93C
:10182000BB279395F695879577956795B795F111B1
:10183000F8CFFAF4BB0F11F460FF1BC06F5F7F4F4E
:101840008F4F9F4F16C0882311F096E911C0772360
:1018500021F09EE8872F762F05C0662371F096E869
:10186000862F70E060E02AF09A95660F771F881F38
:10187000DAF7880F9695879597F90895990F0008DC
:10188000550FAA0BE0E8FEEF16161706E807F90752
:10189000C0F012161306E407F50798F0621B730BED
:1018A000840B950B39F40A2661F0232B242B252B6E
:1018B00021F408950A2609F4A140A6958FEF811D11
:1018C000811D089597F99F6780E870E060E00895B2
:1018D0009FEF80EC089500240A9416161706180648
:1018E0000906089500240A94121613061406050624
:1018F0000895092E0394000C11F4882352F0BB0FB5
:1019000040F4BF2B11F460FF04C06F5F7F4F8F4F17
:101910009F4F089557FD9058440F551F59F05F3F52
:1019200071F04795880F97FB991F61F09F3F79F001
:1019300087950895121613061406551FF2CF469583
:10194000F1DF08C0161617061806991FF1CF869505
:101950007105610508940895E894BB2766277727E9
:10196000CB0197F90895FA01108211820E94920C1E
:1019700070F0992351F09E57550B87FF0E94830DFD
:101980009083518311248F779FE397F908950C94E6
:10199000750D0E943E0C08F48FEF08950C94620CB4
:1019A0000C94750D0E94920CD8F39923C9F3940FEF
:1019B000511DA3F39150504094F059F0882332F018
:1019C000660F771F881F91505040C1F79E3F510509
:1019D0002CF7880F911D9695879597F908955F3F8D
:1019E000ACF0983E9CF0BB27869577956795B795A8
:1019F00008F4B1609395C1F7BB0F58F711F460FF7D
:101A0000E8CF6F5F7F4F8F4F9F4FE3CF0C94AD0CAC
:101A10000E941B0D0C94790C0E946B0C38F00E94F4
:101A2000720C20F0952311F00C94620C0C94680C4D
:101A300011240C94AD0C0E948A0C70F3959FC1F395
:101A4000950F50E0551F629FF001729FBB27F00D6C
:101A5000B11D639FAA27F00DB11DAA1F649F6627C1
:101A6000B00DA11D661F829F2227B00DA11D621F10
:101A7000739FB00DA11D621F839FA00D611D221FCA
:101A8000749F3327A00D611D231F849F600D211DAE
:101A9000822F762F6A2F11249F5750409AF0F1F031
:101AA00088234AF0EE0FFF1FBB1F661F771F881F9A
:101AB00091505040A9F79E3F510580F00C94620C64
:101AC0000C94AD0C5F3FE4F3983ED4F38695779584
:101AD0006795B795F795E7959F5FC1F7FE2B880F40
:101AE000911D9695879597F908959F3F31F09150F4
:101AF00020F4879577956795B795880F911D9695F2
:101B0000879597F9089591505040660F771F881F69
:101B1000D2F7089581E090E0F8940C948F0DF8943A
:021B2000FFCFF5
:101B2200570FE8798E8E65B618FF78B4553C5D4C38
:101B32005144B814475EBB1C4253274C03D0A33810
:101B42000000000000AF0118014701F601780156BC
:101B5200016A0153657269616C2073746172746504
:101B620064005374617274696E67204C6F52612E07
:101B72002E2E00204F4B006F6273657276696E677E
:101B82002E2E2E00656E64206F6620736C65657064
:101B92000053656E64696E67204C6F526120446128
:101BA20074612E2E2E005061796C6F61643A2000B0
:101BB2000D0A004672616D6520436F756E74657221
:101BC2003A20004661696C65643A20436865636B3C
:0C1BD20020796F757220726164696F00E9
:00000001FF
