:100000000C94EE000C9416010C9416010C9416013D
:100010000C9416010C9416010C94E9020C94160130
:100020000C9416010C9416010C9416010C941601F4
:100030000C9416010C9416010C9416010C941601E4
:100040000C9451060C9416010C94AD020C9487028A
:100050000C9416010C9416010C9416010C941601C4
:100060000C9416010C9416010000000023002600D9
:100070002900D9068BD91358D92024D8C68BD8D3B8
:1000800058D8E024D8ECF1D8F9BE000000080002EE
:100090000100000304070000000000000000000051
:1000A0000000250028002B0000000000240027008D
:1000B0002A000404040404040404020202020202EA
:1000C000030303030303010204081020408001021C
:1000D00004081020010204081020637C777BF26B77
:1000E0006FC53001672BFED7AB76CA82C97DFA593E
:1000F00047F0ADD4A2AF9CA472C0B7FD9326363FA3
:10010000F7CC34A5E5F171D8311504C723C318968F
:10011000059A071280E2EB27B27509832C1A1B6E31
:100120005AA0523BD6B329E32F8453D100ED20FCD3
:10013000B15B6ACBBE394A4C58CFD0EFAAFB434DD6
:10014000338545F9027F503C9FA851A3408F929D73
:1001500038F5BCB6DA2110FFF3D2CD0C13EC5F9763
:100160004417C4A77E3D645D197360814FDC222A69
:10017000908846EEB814DE5E0BDBE0323A0A4906A0
:10018000245CC2D3AC629195E479E7C8376D8DD514
:100190004EA96C56F4EA657AAE08BA78252E1CA6EC
:1001A000B4C6E8DD741F4BBD8B8A703EB56648034C
:1001B000F60E613557B986C11D9EE1F8981169D9CF
:1001C0008E949B1E87E9CE5528DF8CA1890DBFE652
:1001D000426841992D0FB054BB162F0A11241FBE3F
:1001E000CFEFD8E0DEBFCDBF11E0A0E0B1E0E0E7A7
:1001F000FAE102C005900D92A23AB107D9F722E0C8
:10020000A2EAB1E001C01D92A336B207E1F710E007
:10021000CEEED0E004C02197FE010E948F0ACD3EB1
:10022000D107C9F70E949B060C94360D0C94000070
:10023000CF92DF92EF92FF920F931F93CF93DF93B2
:100240006C017A018B01C0E0D0E0CE15DF0589F0AA
:10025000D8016D918D01D601ED91FC910190F08155
:10026000E02DC6010995892B11F47E0102C021966B
:10027000ECCFC701DF91CF911F910F91FF90EF90CD
:10028000DF90CF900895089580E090E00895FC01FC
:10029000538D448D252F30E0842F90E0821B930BEB
:1002A000541710F0CF96089501970895FC01918D91
:1002B000828D981761F0828DDF01A80FB11D5D96C8
:1002C0008C91928D9F5F9F73928F90E008958FEF36
:1002D0009FEF0895FC01918D828D981731F0828DEA
:1002E000E80FF11D858D90E008958FEF9FEF089541
:1002F000FC01918D228D892F90E0805C9F4F821BA5
:1003000091098F73992708958CEA91E00E947801F2
:1003100021E0892B09F420E0822F0895FC01848DCF
:10032000DF01A80FB11DA35ABF4F2C91848D90E01F
:1003300001968F739927848FA689B7892C93A089FA
:10034000B1898C9180648C93938D848D981306C0B1
:100350000288F389E02D80818F7D80830895EF925C
:10036000FF920F931F93CF93DF93EC0181E0888F6F
:100370009B8D8C8D981305C0E889F989808185FD56
:1003800024C0F62E0B8D10E00F5F1F4F0F73112747
:10039000E02E8C8DE8120CC00FB607FCFACFE8896E
:1003A000F989808185FFF5CFCE010E948E01F1CFC2
:1003B0008B8DFE01E80FF11DE35AFF4FF0820B8F8A
:1003C000EA89FB898081806207C0EE89FF896083AA
:1003D000E889F98980818064808381E090E0DF9101
:1003E000CF911F910F91FF90EF900895CF93DF93DE
:1003F000EC01888D8823C9F0EA89FB89808185FD1D
:1004000005C0A889B9898C9186FD0FC00FB607FC7D
:10041000F5CF808185FFF2CFA889B9898C9185FFBE
:10042000EDCFCE010E948E01E7CFDF91CF910895ED
:1004300080E090E0892B29F00E94840181110C94C6
:10044000000008950E94310DCF92DF92EF92FF924B
:100450000F931F93CF93DF9300D0CDB7DEB7AE01DC
:100460004F5F5F4F0E945A0C6B017C0120E030E02F
:10047000A9010E94020B87FF07C0F7FAF094F7F872
:10048000F09400E010E802C000E010E089819A8159
:100490000F9697FD03C09A83898302C01A8219823E
:1004A0004BE050E0C701B6010E94790C20E030E03B
:1004B00040E05FE30E94960A0E94790B611588E094
:1004C000780738F089819A8101969A83898360E060
:1004D00074E029813A812031310524F0C8018F6F01
:1004E0009F670AC0322F2227330F330F330F202B81
:1004F000312BC901862B972B0F900F90DF91CF9155
:100500001F910F91FF90EF90DF90CF9008951F9271
:100510000F920FB60F9211242F933F934F935F9337
:100520006F937F938F939F93AF93BF93EF93FF93BB
:100530008CEA91E00E948E01FF91EF91BF91AF9103
:100540009F918F917F916F915F914F913F912F91EB
:100550000F900FBE0F901F9018951F920F920FB61D
:100560000F9211242F938F939F93EF93FF93E0911A
:10057000BC01F091BD018081E091C201F091C30105
:1005800082FD12C090818091C5018F5F8F73209191
:10059000C601821751F0E091C501F0E0E455FE4F2D
:1005A000958F8093C50101C08081FF91EF919F914C
:1005B0008F912F910F900FBE0F901F9018958EBDA9
:1005C00000000DB407FEFDCF8EB508958CBD9DBD16
:1005D00008951F920F920FB60F9211240F900FBE25
:1005E0000F901F901895CF93DF93EC0120E030E03F
:1005F000DB01A20FB31FF901EE0FFF1FEE0FFF1F6C
:10060000EC0FFD1F90E041918C9148274C939F5F28
:1006100014969430C1F72F5F3F4F2430310541F7D6
:10062000DF91CF910895EF92FF921F93CF93DF93C5
:1006300000D000D0CDB7DEB7DB0191E02BE18130F7
:1006400041F0392F3078990F303809F492278150D2
:10065000F6CF1D96EC911D978E2F8F70E295EF705F
:1006600020E1E29FF0011124E80FF11DE652FF4F57
:1006700084911E96EC911E972E2F2F70E295EF70AD
:1006800030E1E39FF0011124E20FF11DE652FF4F2C
:10069000E491EA831F96EC911F972E2F2F70E2951D
:1006A000EF7030E1E39FF0011124E20FF11DE652FB
:1006B000FF4FE491EB831C96EC911C972E2F2F702B
:1006C000E295EF7030E1E39FF0011124E20FF11D9C
:1006D000E652FF4FE491EC838927898320E030E0E4
:1006E000BE016F5F7F4F54E0560FF901EE0FFF1F01
:1006F000EE0FFF1F7F01EA0EFB1ECB01FC011081F4
:10070000F7014081412741937F01FC014193CF01D3
:100710005E13F4CF2F5F3F4F2430310531F70F9038
:100720000F900F900F90DF91CF911F91FF90EF905E
:1007300008953FB7F89480915D0290915E02A09178
:100740005F02B091600226B5A89B05C02F3F19F04B
:100750000196A11DB11D3FBFBA2FA92F982F882741
:10076000820F911DA11DB11DBC01CD0142E0660F9C
:10077000771F881F991F4A95D1F70895009769F050
:10078000FC0101900020E9F73197AF01481B590B9C
:10079000BC018CEA91E00C94180180E090E008958F
:1007A0008F929F92AF92BF920F931F93CF93DF933D
:1007B000CDB7DEB7A1970FB6F894DEBF0FBECDBFA1
:1007C00019A2423008F44AE08E010F5D1F4F842EBB
:1007D000912CA12CB12CA50194010E946D0AE62F49
:1007E000B901CA0101501109EA3014F4E05D01C0F9
:1007F000E95CD801EC93232B242B252B61F7C8014E
:100800000E94BE03A1960FB6F894DEBF0FBECDBF07
:10081000DF91CF911F910F91BF90AF909F908F90DC
:100820000895CF93DF930E94BE03EC018FE891E01F
:100830000E94BE038C0F9D1FDF91CF9108954F92B0
:100840005F927F928F929F92AF92BF92CF92DF92F0
:10085000EF92FF920F931F93CF93DF93CDB7DEB745
:10086000A9970FB6F894DEBF0FBECDBF6C0180E034
:1008700090E08E010F5F1F4FDC01AA0FBB1FAA0F74
:10088000BB1FAC0DBD1D20E030E0FD90A901480F5D
:10089000591F400F511FFA01F0822C5F3F4F20314A
:1008A000310599F701968430910531F780E1FB011C
:1008B000DE01519601900D928A95E1F7B801CE01C3
:1008C00041960E94F30221E034E0932E900E4BE11A
:1008D000842E7801C801702EDC0130E0EC914E2F9F
:1008E0004F70E295EF7050E1E59FF0011124E40FA5
:1008F000F11DE652FF4FE491EC933F5F14963430C4
:1009000069F701969812E8CF8D819E819D839F8122
:100910009E8398859F83888789859B8599878B8708
:100920008A859C859A878C8788899F85988B9E85E8
:100930009F879D859E878D87CE010D962801BE01DC
:100940006B5D7F4FFE01B19640E050E05201A40E76
:10095000B51ED501BC90DB01BD92BD013B2D330F0F
:10096000B7FC382530834C5F5F4F319640315105DD
:1009700069F76EA149A146277FA1B8A43AA13727FC
:100980003B25532F5427F20151932F01ADA05BA1BA
:10099000FC0138973A25352730833CA134966B25E6
:1009A0006A255627532750837A2537274327DC01AA
:1009B0004D93CD019410C3CFBE016F5E7F4F822F48
:1009C00029A70E941303B801CE0141960E94F302A9
:1009D00029A52F5F2A3009F07CCF94E0970DD7012D
:1009E00080E0EC912E2F2F70E295EF7030E1E39FC5
:1009F000F0011124E20FF11DE652FF4FE491EC9358
:100A00008F5F1496843069F75FEFE51AF50A9E113F
:100A1000E6CF8D819E819D839F819E8398859F8354
:100A2000888789859B8599878B878A859C859A8706
:100A30008C8788899F85988B9E859F879D859E87BB
:100A40008D87BE016F5E7F4F8AE00E941303B8015D
:100A5000CE0141960E94F30280E090E0FC01EE0F8F
:100A6000FF1FEE0FFF1FEC0DFD1D20E030E0D90150
:100A7000A80FB91FA00FB11F4C9141932C5F3F4F9E
:100A800020313105A1F701968430910539F7A996F7
:100A90000FB6F894DEBF0FBECDBFDF91CF911F918F
:100AA0000F91FF90EF90DF90CF90BF90AF909F900D
:100AB0008F907F905F904F900895FC019C01205F84
:100AC0003F4FDB018D91BD01908189278193E21712
:100AD000F307B9F70895FC0120E02F3031F0918140
:100AE000892F881F8827881F01C080E09081990F77
:100AF000980F91932F5F203181F7089590E0FC01CA
:100B0000EA53FF4F2491FC01EE54FF4F8491882358
:100B100099F090E0880F991FFC01E855FF4FA591CF
:100B2000B491FC01E256FF4F859194918FB7F894F0
:100B3000EC91E22BEC938FBF0895833081F028F481
:100B4000813099F08230A1F008958730A9F0883083
:100B5000B9F08430D1F4809180008F7D03C0809102
:100B600080008F7780938000089584B58F7702C0CE
:100B700084B58F7D84BD08958091B0008F7703C0C8
:100B80008091B0008F7D8093B00008951F93CF9324
:100B9000DF93282F30E0F901E657FF4F8491F901E8
:100BA000EA53FF4FD491F901EE54FF4FC491CC2387
:100BB000C9F0162F81110E949D05EC2FF0E0EE0F79
:100BC000FF1FE256FF4FA591B4918FB7F894111112
:100BD00005C09C91ED2FE095E92302C0EC91ED2B2F
:100BE000EC938FBFDF91CF911F9108950F931F93C7
:100BF000CF93DF93082F162F8091490290914A02DC
:100C00000E94E602CBE4D2E060E08C810E94C6053F
:100C1000802F80680E94DF02812F0E94DF0261E046
:100C20008C81DF91CF911F910F910C94C6058F920B
:100C30009F92AF92BF92CF92DF92EF92FF926B01A1
:100C40007C010E9499034B015C01C114D104E104B1
:100C5000F104F1F00E949903DC01CB018819990994
:100C6000AA09BB09883E9340A105B10570F321E0B4
:100C7000C21AD108E108F10888EE880E83E0981EB8
:100C8000A11CB11CC114D104E104F10419F7DDCF9A
:100C9000FF90EF90DF90CF90BF90AF909F908F909C
:100CA00008951F920F920FB60F9211242F933F9326
:100CB0008F939F93AF93BF938091590290915A0263
:100CC000A0915B02B0915C023091580223E0230FA7
:100CD0002D3720F40196A11DB11D05C026E8230F74
:100CE0000296A11DB11D2093580280935902909342
:100CF0005A02A0935B02B0935C0280915D029091D6
:100D00005E02A0915F02B09160020196A11DB11D2B
:100D100080935D0290935E02A0935F02B0936002A5
:100D2000BF91AF919F918F913F912F910F900FBEE7
:100D30000F901F901895CF93DF93CDB7DEB7C859AA
:100D4000D1090FB6F894DEBF0FBECDBF789484B53D
:100D5000826084BD84B5816084BD85B5826085BDB7
:100D600085B5816085BD80916E00816080936E0045
:100D70001092810080918100826080938100809137
:100D800081008160809381008091800081608093E8
:100D900080008091B10084608093B1008091B000A8
:100DA00081608093B00080917A00846080937A00A3
:100DB00080917A00826080937A0080917A008160CD
:100DC00080937A0080917A00806880937A001092F4
:100DD000C100E091BC01F091BD0182E08083E0910F
:100DE000B801F091B9011082E091BA01F091BB0114
:100DF0008FEC80831092C401E091C001F091C10199
:100E000086E08083E091BE01F091BF018081806126
:100E10008083E091BE01F091BF0180818860808372
:100E2000E091BE01F091BF01808180688083E091F4
:100E3000BE01F091BF0180818F7D808382E391E0CC
:100E40000E94110481E491E00E94BE0310925302BB
:100E500081E08093510284EC8093550282E7809375
:100E600056028CE0809357021FB7F8948091A3013B
:100E7000811124C0ECEBF0E08491E0EDF0E094917E
:100E8000E82FF0E0EE0FFF1FE855FF4FA591B4915A
:100E9000EC91E92321F461E08AE00E94C6058AE032
:100EA0000E947E058CB580618CBD8CB580648CBD44
:100EB0008DE00E947E058BE00E947E058091A3015B
:100EC0008F5F8093A3011FBF80914F020E947E0518
:100ED000809150020E947E058091490290914A02C1
:100EE0000E94E60260E080914F020E94C60582E403
:100EF0000E94DF0280E00E94DF0261E080914F02E9
:100F00000E94C60560E081E00E94F60560E881E08D
:100F10000E94F6056FEF89E00E94F60565E28FE119
:100F20000E94F60560E080E20E94F60568E081E23A
:100F30000E94F6056CE086E20E94F60564E389E310
:100F40000E94F60567E283E30E94F6056DE18BE3FC
:100F50000E94F60560E88EE00E94F60560E08FE0F2
:100F60000E94F60582E591E00E9411045E0181E98C
:100F7000A80EB11C96E09A0DC956DF4F9883C75949
:100F8000D0406E01A1E6CA0ED11C4E01B1E58B0E18
:100F9000911C8E010F571F4FE0E1E00FC856DF4F45
:100FA000E883C859D0408091AA019091AB01009785
:100FB00019F1019709F04CC261E08DE00E94C6056D
:100FC00080E791E00E94110489E18093A4011092CE
:100FD000A5016DEC7CEC8CE49FE30E9424028093DD
:100FE000A6019093A70187E480937C0080917A000A
:100FF000806480937A001DC086E591E00E94110410
:1010000060E08DE00E94C60560ED77E080E090E052
:101010000E94170661E08DE00E94C60583E691E01C
:101020000E94110481E090E09093AB018093AA01AB
:101030000FC280917A0086FDFCCF6091780080918C
:10104000790070E0782B072E000C880B990B0E941A
:10105000AA0B9B01AC010E94960A20E030E040EA16
:1010600050E40E94AF0C20E030E040E85AE30E94D8
:10107000AF0C20E030E040E251E40E94070B2B016E
:101080003C0120E030E040E85FEB0E94020B1816C4
:101090007CF420E030E040E85FE3C301B2010E944D
:1010A000700C87FF08C0C301B2010E94240205C072
:1010B0008FEF9FEF02C08FEF9FE78093A80190937F
:1010C000A90185E891E00E94BE0354EAE52E51E0B3
:1010D000F52E3701D3016D913D0170E080E090E085
:1010E00040E10E94D0038DE891E00E94BE03BAEA7D
:1010F0006B16B1E07B0671F78FE891E00E94BE03AA
:1011000082E991E00E94BE0360914C0270914D0211
:1011100080E090E04AE00E94D0038FE891E00E94D6
:10112000BE0320904C0230904D02F501D7018D9105
:101130007D018193BAEAEB16B1E0FB06B9F781E0D5
:1011400089831A821B821C821D821E8291EB9F83DF
:1011500092E19887898796E29A872B863C861D863E
:101160001E861F86888B60E171E0CE0101960E9489
:101170001F04DE011196F5018D91908189278193DD
:10118000C956DF4F8881C759D0408E13F5CF80E410
:10119000898381EB8A8382E18B8381E08C8396E271
:1011A0009D831E822F8238868987DE011A96F5017B
:1011B00086E08A0D91919D938E13FCCF2E0191E7CD
:1011C000490E511C80E1D201E82F1D92EA95E9F702
:1011D000D601E82F1D92EA95E9F7D401E82F1D9278
:1011E000EA95E9F77E01F1E4EF0EF11CD7011D92BB
:1011F0008A95E9F789E4F8018083118212821382CB
:101200001482158281EB868382E1878381E0808767
:1012100086E28187228633861486158616868FE0BD
:10122000878760E071E0C2010E941F04D2013C90F8
:10123000C2010E946B0537FE05C0F201978587E861
:1012400089278787F601D20180E1840D9D919193D2
:101250008A13FCCFD6015C90C6010E946B0557FE35
:1012600005C0F601978587E88927878760E071E0E8
:10127000C8010E941F04D401F80181918D93C856C2
:10128000DF4F8881C859D0408E13F7CFF701AE01E8
:101290004F5F5F4F80E090E88F3009F4DCC0DA01E7
:1012A0002D91AD0120838F5F31968031A9F7B60172
:1012B000C7010E945D05B401C7010E945D0560E0A1
:1012C00071E0C7010E941F04F701308121819281E2
:1012D0008381482F477040934E02492F47704093B7
:1012E0004B02388B298B9A8B8B8B61E881E00E94B3
:1012F000F6056AE070E080E090E00E94170660E486
:1013000080E40E94F60580915102882341F1E0912A
:101310004E02F0E0BF01660F771FE60FF71FEE5891
:10132000FF4F649186E00E94F605E0914E02F0E0E6
:10133000BF01660F771FE60FF71FED58FF4F64914F
:1013400087E00E94F605E0914E02F0E0BF01660FD3
:10135000771FE60FF71FEC58FF4F64910CC06091A8
:10136000520286E00E94F6056091530287E00E94D7
:10137000F6056091540288E00E94F60560915502DE
:101380008EE10E94F605609156028DE10E94F605FD
:101390006091570286E20E94F60563E182E20E94B4
:1013A000F60560E88DE00E94F605CE0101967C010D
:1013B00093E1592E5E0CD7016D917D0180E00E9472
:1013C000F6055E10F8CF63E881E00E94F6052091F3
:1013D000500230E0B90166577F4FA9014A535F4F71
:1013E0002E543F4FFB018491FA01F490F901E490EF
:1013F000EE20C1F381110E949D05EE2DF0E0EE0F6D
:10140000FF1FE859FF4FA591B4918C91F822F9F292
:1014100060E081E00E94F6050FB6F894DEBF0FBED3
:10142000CDBF80914C0290914D02019690934D0258
:1014300080934C0268EE73E080E090E00E94170613
:1014400060E08DE00E94C6051092AB011092AA01E7
:101450000E941802A8CDD7011F969C9324CFECEAD6
:10146000F1E01382128288EE93E0A0E0B0E0848382
:101470009583A683B78384E291E09183808385EC92
:1014800090E09587848784EC90E09787868780EC4E
:1014900090E0918B808B81EC90E0938B828B82EC3F
:1014A00090E0958B848B86EC90E0978B868B118EE9
:1014B000128E138E148EE9E4F2E080E580831182AF
:1014C0008FEF9FEF9093620280936102EBE4F2E072
:1014D00082E085838AE084830895A1E21A2EAA1B04
:1014E000BB1BFD010DC0AA1FBB1FEE1FFF1FA217D4
:1014F000B307E407F50720F0A21BB30BE40BF50BD1
:10150000661F771F881F991F1A9469F76095709559
:10151000809590959B01AC01BD01CF010895EE0F20
:10152000FF1F0590F491E02D09945058BB27AA277E
:101530000E94AD0A0C94200C0E94120C38F00E94FC
:10154000190C20F039F49F3F19F426F40C940F0C79
:101550000EF4E095E7FB0C94090CE92F0E94310C86
:1015600058F3BA17620773078407950720F079F4D8
:10157000A6F50C94530C0EF4E0950B2EBA2FA02D6B
:101580000B01B90190010C01CA01A0011124FF2730
:10159000591B99F0593F50F4503E68F11A16F0402B
:1015A000A22F232F342F4427585FF3CF469537952A
:1015B0002795A795F0405395C9F77EF41F16BA0BEF
:1015C000620B730B840BBAF09150A1F0FF0FBB1F9D
:1015D000661F771F881FC2F70EC0BA0F621F731FE6
:1015E000841F48F4879577956795B795F7959E3F43
:1015F00008F0B0CF9395880F08F09927EE0F9795D4
:10160000879508950E94E50B08F481E008950E94F3
:101610001B0B0C94200C0E94190C58F00E94120C09
:1016200040F029F45F3F29F00C94090C51110C94FF
:10163000540C0C940F0C0E94310C68F39923B1F3F5
:10164000552391F3951B550BBB27AA2762177307E8
:10165000840738F09F5F5F4F220F331F441FAA1F7C
:10166000A9F335D00E2E3AF0E0E832D09150504038
:10167000E695001CCAF72BD0FE2F29D0660F771FE6
:10168000881FBB1F261737074807AB07B0E809F0CC
:10169000BB0B802DBF01FF2793585F4F3AF09E3F51
:1016A000510578F00C94090C0C94540C5F3FE4F352
:1016B000983ED4F3869577956795B795F7959F5F94
:1016C000C9F7880F911D9695879597F90895E1E0E0
:1016D000660F771F881FBB1F621773078407BA073F
:1016E00020F0621B730B840BBA0BEE1F88F7E0959A
:1016F00008950E94390C88F09F5798F0B92F9927C8
:10170000B751B0F0E1F0660F771F881F991F1AF0EC
:10171000BA95C9F714C0B13091F00E94530CB1E0F2
:1017200008950C94530C672F782F8827B85F39F0F1
:10173000B93FCCF3869577956795B395D9F73EF485
:1017400090958095709561957F4F8F4F9F4F08952D
:10175000E89409C097FB3EF490958095709561954B
:101760007F4F8F4F9F4F9923A9F0F92F96E9BB2701
:101770009395F695879577956795B795F111F8CF7D
:10178000FAF4BB0F11F460FF1BC06F5F7F4F8F4FE8
:101790009F4F16C0882311F096E911C0772321F0DE
:1017A0009EE8872F762F05C0662371F096E8862F76
:1017B00070E060E02AF09A95660F771F881FDAF7CD
:1017C000880F9695879597F90895990F0008550FFA
:1017D000AA0BE0E8FEEF16161706E807F907C0F0B7
:1017E00012161306E407F50798F0621B730B840BBF
:1017F000950B39F40A2661F0232B242B252B21F499
:1018000008950A2609F4A140A6958FEF811D811D38
:10181000089597F99F6780E870E060E008959FEF72
:1018200080EC089500240A94161617061806090677
:10183000089500240A941216130614060506089546
:10184000092E0394000C11F4882352F0BB0F40F4CE
:10185000BF2B11F460FF04C06F5F7F4F8F4F9F4F0E
:10186000089557FD9058440F551F59F05F3F71F090
:101870004795880F97FB991F61F09F3F79F08795F7
:101880000895121613061406551FF2CF4695F1DF80
:1018900008C0161617061806991FF1CF8695710510
:1018A000610508940895E894BB2766277727CB0144
:1018B00097F90895FA01108211820E94390C70F094
:1018C000992351F09E57550B87FF0E942A0D908354
:1018D000518311248F779FE397F908950C941C0D81
:1018E0000E94E50B08F48FEF08950C94090C0C94FA
:1018F0001C0D0E94390CD8F39923C9F3940F511D84
:10190000A3F39150504094F059F0882332F0660FC1
:10191000771F881F91505040C1F79E3F51052CF70B
:10192000880F911D9695879597F908955F3FACF0C4
:10193000983E9CF0BB27869577956795B79508F4F8
:10194000B1609395C1F7BB0F58F711F460FFE8CF72
:101950006F5F7F4F8F4F9F4FE3CF0C94540C0E94CB
:10196000C20C0C94200C0E94120C38F00E94190C2E
:1019700020F0952311F00C94090C0C940F0C1124F9
:101980000C94540C0E94310C70F3959FC1F3950F89
:1019900050E0551F629FF001729FBB27F00DB11DF3
:1019A000639FAA27F00DB11DAA1F649F6627B00D83
:1019B000A11D661F829F2227B00DA11D621F739F6C
:1019C000B00DA11D621F839FA00D611D221F749F7A
:1019D0003327A00D611D231F849F600D211D822FC1
:1019E000762F6A2F11249F5750409AF0F1F08823E8
:1019F0004AF0EE0FFF1FBB1F661F771F881F915015
:101A00005040A9F79E3F510580F00C94090C0C94AE
:101A1000540C5F3FE4F3983ED4F386957795679531
:101A2000B795F795E7959F5FC1F7FE2B880F911D3E
:101A30009695879597F908959F3F31F0915020F43E
:101A4000879577956795B795880F911D969587959A
:101A500097F9089591505040660F771F881FD2F76D
:101A6000089581E090E0F8940C94360DF894FFCF3F
:101A7000570FE8798E8E65B618FF78B4553C5D4CEB
:101A80005144B814475EBB1C4253274C03D0A338C3
:101A900000000000AF0118014701F601780156016E
:101AA0006A0153657269616C207374617274656454
:101AB000005374617274696E67204C6F52612E2EF0
:101AC0002E00204F4B006F6273657276696E672E31
:101AD0002E2E00656E64206F6620736C6565700045
:101AE00053656E64696E67204C6F52612044617467
:101AF000612E2E2E005061796C6F61643A20000DCA
:101B00000A004672616D6520436F756E7465723AA6
:021B10002000B3
:00000001FF
