:100000000C94EE000C9416010C9416010C9416013D
:100010000C9416010C9416010C94EF020C9416012A
:100020000C9416010C9416010C9416010C941601F4
:100030000C9416010C9416010C9416010C941601E4
:100040000C9474060C9416010C94AD020C94870267
:100050000C9416010C9416010C9416010C941601C4
:100060000C9416010C9416010000000023002600D9
:100070002900E1F9C0E2068CE21359E22026E22CC5
:10008000F3E239C0E2468CE253590000000024003C
:1000900027002A0000000000250028002B0004048F
:1000A0000404040404040202020202020303030320
:1000B00003030102040810204080010204081020FC
:1000C00001020408102000000008000201000003E3
:1000D00004070000000000000000637C777BF26BE7
:1000E0006FC53001672BFED7AB76CA82C97DFA593E
:1000F00047F0ADD4A2AF9CA472C0B7FD9326363FA3
:10010000F7CC34A5E5F171D8311504C723C318968F
:10011000059A071280E2EB27B27509832C1A1B6E31
:100120005AA0523BD6B329E32F8453D100ED20FCD3
:10013000B15B6ACBBE394A4C58CFD0EFAAFB434DD6
:10014000338545F9027F503C9FA851A3408F929D73
:1001500038F5BCB6DA2110FFF3D2CD0C13EC5F9763
:100160004417C4A77E3D645D197360814FDC222A69
:10017000908846EEB814DE5E0BDBE0323A0A4906A0
:10018000245CC2D3AC629195E479E7C8376D8DD514
:100190004EA96C56F4EA657AAE08BA78252E1CA6EC
:1001A000B4C6E8DD741F4BBD8B8A703EB56648034C
:1001B000F60E613557B986C11D9EE1F8981169D9CF
:1001C0008E949B1E87E9CE5528DF8CA1890DBFE652
:1001D000426841992D0FB054BB16BD0A11241FBEB1
:1001E000CFEFD8E0DEBFCDBF11E0A0E0B1E0E0E9A5
:1001F000FBE102C005900D92AC3BB107D9F722E0BC
:10020000ACEBB1E001C01D92A538B207E1F710E0F8
:10021000CEEED0E004C02197FE010E941F0BCD3E20
:10022000D107C9F70E94BE060C94C60D0C940000BD
:10023000CF92DF92EF92FF920F931F93CF93DF93B2
:100240006C017A018B01C0E0D0E0CE15DF0589F0AA
:10025000D8016D918D01D601ED91FC910190F08155
:10026000E02DC6010995892B11F47E0102C021966B
:10027000ECCFC701DF91CF911F910F91FF90EF90CD
:10028000DF90CF900895089580E090E00895FC01FC
:10029000538D448D252F30E0842F90E0821B930BEB
:1002A000541710F0CF96089501970895FC01918D91
:1002B000828D981761F0828DDF01A80FB11D5D96C8
:1002C0008C91928D9F5F9F73928F90E008958FEF36
:1002D0009FEF0895FC01918D828D981731F0828DEA
:1002E000E80FF11D858D90E008958FEF9FEF089541
:1002F000FC01918D228D892F90E0805C9F4F821BA5
:1003000091098F73992708958DEC91E00E947801EF
:1003100021E0892B09F420E0822F0895FC01848DCF
:10032000DF01A80FB11DA35ABF4F2C91848D90E01F
:1003300001968F739927848FA689B7892C93A089FA
:10034000B1898C9180648C93938D848D981306C0B1
:100350000288F389E02D80818F7D80830895EF925C
:10036000FF920F931F93CF93DF93EC0181E0888F6F
:100370009B8D8C8D981305C0E889F989808185FD56
:1003800024C0F62E0B8D10E00F5F1F4F0F73112747
:10039000E02E8C8DE8120CC00FB607FCFACFE8896E
:1003A000F989808185FFF5CFCE010E948E01F1CFC2
:1003B0008B8DFE01E80FF11DE35AFF4FF0820B8F8A
:1003C000EA89FB898081806207C0EE89FF896083AA
:1003D000E889F98980818064808381E090E0DF9101
:1003E000CF911F910F91FF90EF900895CF93DF93DE
:1003F000EC01888D8823C9F0EA89FB89808185FD1D
:1004000005C0A889B9898C9186FD0FC00FB607FC7D
:10041000F5CF808185FFF2CFA889B9898C9185FFBE
:10042000EDCFCE010E948E01E7CFDF91CF910895ED
:1004300080E090E0892B29F00E94840181110C94C6
:10044000000008950E94C10DCF92DF92EF92FF92BB
:100450000F931F93CF93DF9300D0CDB7DEB7AE01DC
:100460004F5F5F4F0E94EA0C6B017C0120E030E09F
:10047000A9010E94920B87FF07C0F7FAF094F7F8E2
:10048000F09400E010E802C000E010E089819A8159
:100490000F9697FD03C09A83898302C01A8219823E
:1004A0004BE050E0C701B6010E94090D20E030E0AA
:1004B00040E05FE30E94260B0E94090C611588E072
:1004C000780738F089819A8101969A83898360E060
:1004D00074E029813A812031310524F0C8018F6F01
:1004E0009F670AC0322F2227330F330F330F202B81
:1004F000312BC901862B972B0F900F90DF91CF9155
:100500001F910F91FF90EF90DF90CF9008951F9271
:100510000F920FB60F9211242F933F934F935F9337
:100520006F937F938F939F93AF93BF93EF93FF93BB
:100530008DEC91E00E948E01FF91EF91BF91AF9100
:100540009F918F917F916F915F914F913F912F91EB
:100550000F900FBE0F901F9018951F920F920FB61D
:100560000F9211242F938F939F93EF93FF93E0911A
:10057000DD01F091DE018081E091E301F091E40181
:1005800082FD12C090818091E6018F5F8F73209170
:10059000E701821751F0E091E601F0E0E353FE4FEE
:1005A000958F8093E60101C08081FF91EF919F912B
:1005B0008F912F910F900FBE0F901F9018958FB7AE
:1005C000F8948091BD018FBF08958EBD00000DB4D9
:1005D00007FEFDCF8EB508958CBD9DBD08951F9279
:1005E0000F920FB60F9211240F900FBE0F901F9015
:1005F0001895CF93DF93EC0120E030E0DB01A20FF0
:10060000B31FF901EE0FFF1FEE0FFF1FEC0FFD1FD1
:1006100090E041918C9148274C939F5F14969430C1
:10062000C1F72F5F3F4F2430310541F7DF91CF9164
:100630000895EF92FF921F93CF93DF9300D000D0E5
:10064000CDB7DEB7DB0191E02BE1813041F0392FEE
:100650003078990F303809F492278150F6CF1D96E3
:10066000EC911D978E2F8F70E295EF7020E1E29F45
:10067000F0011124E80FF11DE652FF4F84911E9600
:10068000EC911E972E2F2F70E295EF7030E1E39FD3
:10069000F0011124E20FF11DE652FF4FE491EA83CD
:1006A0001F96EC911F972E2F2F70E295EF7030E17F
:1006B000E39FF0011124E20FF11DE652FF4FE49198
:1006C000EB831C96EC911C972E2F2F70E295EF7008
:1006D00030E1E39FF0011124E20FF11DE652FF4FDC
:1006E000E491EC838927898320E030E0BE016F5FCD
:1006F0007F4F54E0560FF901EE0FFF1FEE0FFF1F63
:100700007F01EA0EFB1ECB01FC011081F701408145
:10071000412741937F01FC014193CF015E13F4CF48
:100720002F5F3F4F2430310531F70F900F900F901E
:100730000F90DF91CF911F91FF90EF9008953FB7F9
:10074000F89480917F0290918002A0918102B091F3
:10075000820226B5A89B05C02F3F19F00196A11D66
:10076000B11D3FBFBA2FA92F982F8827820F911D47
:10077000A11DB11DBC01CD0142E0660F771F881F8E
:10078000991F4A95D1F70895009769F0FC010190EF
:100790000020E9F73197AF01481B590BBC018DECE4
:1007A00091E00C94180180E090E008958F929F9260
:1007B000AF92BF920F931F93CF93DF93CDB7DEB766
:1007C000A1970FB6F894DEBF0FBECDBF19A242307D
:1007D00008F44AE08E010F5D1F4F842E912CA12C4E
:1007E000B12CA50194010E94FD0AE62FB901CA01AE
:1007F00001501109EA3014F4E05D01C0E95CD80150
:10080000EC93232B242B252B61F7C8010E94C403F2
:10081000A1960FB6F894DEBF0FBECDBFDF91CF918A
:100820001F910F91BF90AF909F908F900895CF939D
:10083000DF930E94C403EC0180E991E00E94C403AD
:100840008C0F9D1FDF91CF9108954F925F927F9201
:100850008F929F92AF92BF92CF92DF92EF92FF92D0
:100860000F931F93CF93DF93CDB7DEB7A9970FB642
:10087000F894DEBF0FBECDBF6C0180E090E08E012A
:100880000F5F1F4FDC01AA0FBB1FAA0FBB1FAC0DD0
:10089000BD1D20E030E0FD90A901480F591F400F19
:1008A000511FFA01F0822C5F3F4F2031310599F73B
:1008B00001968430910531F780E1FB01DE0151960C
:1008C00001900D928A95E1F7B801CE0141960E9400
:1008D000F90221E034E0932E900E4BE1842E780152
:1008E000C801702EDC0130E0EC914E2F4F70E29584
:1008F000EF7050E1E59FF0011124E40FF11DE65285
:10090000FF4FE491EC933F5F1496343069F7019602
:100910009812E8CF8D819E819D839F819E839885CB
:100920009F83888789859B8599878B878A859C8506
:100930009A878C8788899F85988B9E859F879D85C0
:100940009E878D87CE010D962801BE016B5D7F4F7E
:10095000FE01B19640E050E05201A40EB51ED50153
:10096000BC90DB01BD92BD013B2D330FB7FC382598
:1009700030834C5F5F4F31964031510569F76EA16E
:1009800049A146277FA1B8A43AA137273B25532F79
:100990005427F20151932F01ADA05BA1FC013897C0
:1009A0003A25352730833CA134966B256A25562796
:1009B000532750837A2537274327DC014D93CD01F8
:1009C0009410C3CFBE016F5E7F4F822F29A70E9474
:1009D0001903B801CE0141960E94F90229A52F5FA3
:1009E0002A3009F07CCF94E0970DD70180E0EC919C
:1009F0002E2F2F70E295EF7030E1E39FF00111246C
:100A0000E20FF11DE652FF4FE491EC938F5F1496D5
:100A1000843069F75FEFE51AF50A9E11E6CF8D8104
:100A20009E819D839F819E8398859F8388878985EA
:100A30009B8599878B878A859C859A878C878889EF
:100A40009F85988B9E859F879D859E878D87BE01FC
:100A50006F5E7F4F8AE00E941903B801CE01419674
:100A60000E94F90280E090E0FC01EE0FFF1FEE0F04
:100A7000FF1FEC0DFD1D20E030E0D901A80FB91FCC
:100A8000A00FB11F4C9141932C5F3F4F2031310596
:100A9000A1F701968430910539F7A9960FB6F8941D
:100AA000DEBF0FBECDBFDF91CF911F910F91FF90A1
:100AB000EF90DF90CF90BF90AF909F908F907F90FE
:100AC0005F904F900895FC019C01205F3F4FDB0138
:100AD0008D91BD01908189278193E217F307B9F7C2
:100AE0000895FC0120E02F3031F09181892F881F7B
:100AF0008827881F01C080E09081990F980F9193FB
:100B00002F5F203181F70895833081F028F4813000
:100B100099F08230A1F008958730A9F08830B9F0BB
:100B20008430D1F4809180008F7D03C0809180005B
:100B30008F7780938000089584B58F7702C084B545
:100B40008F7D84BD08958091B0008F7703C0809120
:100B5000B0008F7D8093B00008951F93CF93DF93F3
:100B6000282F30E0F901EA53FF4F8491F901EE5448
:100B7000FF4FD491F901E256FF4FC491CC23C9F045
:100B8000162F81110E948405EC2FF0E0EE0FFF1F5D
:100B9000EC56FF4FA591B4918FB7F894111105C091
:100BA0009C91ED2FE095E92302C0EC91ED2BEC93A5
:100BB0008FBFDF91CF911F9108950F931F93CF9314
:100BC000DF93082F162F80916A0290916B020E948A
:100BD000EC02CCE6D2E060E08C810E94AD05802F73
:100BE00080680E94E502812F0E94E50261E08C810D
:100BF000DF91CF911F910F910C94AD05CF93DF93AF
:100C000090E0FC01EE54FF4F2491FC01E256FF4FAF
:100C10008491882361F190E0880F991FFC01E657C9
:100C2000FF4FC591D491FC01EC56FF4FA591B491B3
:100C3000611109C09FB7F894888120958223888329
:100C4000EC912E230BC0623061F49FB7F894388189
:100C5000822F809583238883EC912E2B2C939FBF2A
:100C600006C08FB7F894E8812E2B28838FBFDF91C1
:100C7000CF9108958F929F92AF92BF92CF92DF92C1
:100C8000EF92FF926B017C010E949F034B015C017C
:100C9000C114D104E104F104F1F00E949F03DC01CE
:100CA000CB0188199909AA09BB09883E9340A1057F
:100CB000B10570F321E0C21AD108E108F10888EE0D
:100CC000880E83E0981EA11CB11CC114D104E1045C
:100CD000F10419F7DDCFFF90EF90DF90CF90BF9038
:100CE000AF909F908F9008951F920F920FB60F9222
:100CF00011242F933F938F939F93AF93BF93809132
:100D00007B0290917C02A0917D02B0917E02309195
:100D10007A0223E0230F2D3720F40196A11DB11D87
:100D200005C026E8230F0296A11DB11D20937A026B
:100D300080937B0290937C02A0937D02B0937E020D
:100D400080917F0290918002A0918102B0918202F5
:100D50000196A11DB11D80937F0290938002A09304
:100D60008102B0938202BF91AF919F918F913F9189
:100D70002F910F900FBE0F901F901895CF93DF9378
:100D8000CDB7DEB7C15AD1090FB6F894DEBF0FBE9A
:100D9000CDBF789484B5826084BD84B5816084BD04
:100DA00085B5826085BD85B5816085BD80916E0009
:100DB000816080936E00109281008091810082603A
:100DC0008093810080918100816080938100809177
:100DD00080008160809380008091B1008460809366
:100DE000B1008091B00081608093B00080917A0062
:100DF000846080937A0080917A00826080937A0088
:100E000080917A00816080937A0080917A00806876
:100E100080937A001092C100E091DD01F091DE0133
:100E200082E08083E091D901F091DA011082E091B3
:100E3000DB01F091DC018FEC80831092E501E09101
:100E4000E101F091E20186E08083E091DF01F09121
:100E5000E001808180618083E091DF01F091E00119
:100E6000808188608083E091DF01F091E0018081E2
:100E700080688083E091DF01F091E00180818F7DC7
:100E8000808383E391E00E94170482E491E00E9452
:100E9000C40310927402109276021092750281E0DF
:100EA0008093730284E78093770282E780937802CD
:100EB00084E0809379021FB7F8948091BE0181117C
:100EC00027C0E8EAF0E08491ECEBF0E09491E82FA1
:100ED000F0E0EE0FFF1FE657FF4FA591B491EC91A4
:100EE000E92321F461E08AE00E94AD0561E08AE037
:100EF0000E94FE058CB580618CBD8CB580648CBD74
:100F000061E08DE00E94FE0561E08BE00E94FE053D
:100F10008091BE018F5F8093BE011FBF61E0809111
:100F200070020E94FE0560E0809171020E94FE0541
:100F3000809172021816C4F461E00E94FE0560E020
:100F4000809172020E94AD0560E070E0CB010E94CA
:100F50003A0661E0809172020E94AD0565E070E0A2
:100F600080E090E00E943A0680916A0290916B02C4
:100F70000E94EC0260E0809170020E94AD0582E464
:100F80000E94E50280E00E94E502182F61E0809156
:100F900070020E94AD05123109F0EAC260E081E002
:100FA0000E94DD0560E881E00E94DD056FEF89E0C9
:100FB0000E94DD0565E28FE10E94DD0560E080E2D0
:100FC0000E94DD0568E081E20E94DD056CE086E2BA
:100FD0000E94DD0564E389E30E94DD0567E283E3A7
:100FE0000E94DD056DE18BE30E94DD0560E88EE087
:100FF0000E94DD0560E08FE00E94DD0510926E0228
:1010000010926D0210926C0283E591E00E94170429
:101010003E0121E9620E711C8CE0860DC056DF4F47
:101020008883C05AD0406E0191E7C90ED11C7E0161
:10103000A1E4EA0EF11C8E010F571F4FB0E1B00F73
:10104000CF55DF4FB883C15AD040E0E1EE0DC35613
:10105000DF4FE883CD59D0408091CB019091CC01F6
:10106000009719F1019709F080C261E08DE00E94BC
:10107000AD0581E791E00E94170489E18093BF01EB
:101080001092C0016DEC7CEC8CE49FE30E94240282
:101090008093C1019093C20187E480937C0080918A
:1010A0007A00806480937A001DC087E591E00E94F9
:1010B000170460E08DE00E94AD0560E375E780E015
:1010C00090E00E943A0661E08DE00E94AD0584E662
:1010D00091E00E94170481E090E09093CC0180930E
:1010E000CB0143C280917A0086FDFCCF60917800ED
:1010F0008091790070E0782B072E000C880B990BFB
:101100000E943A0C9B01AC010E94260B20E030E0CB
:1011100040EA50E40E943F0D20E030E040E85AE30E
:101120000E943F0D20E030E040E251E40E94970B26
:101130004B015C0120E030E040E85FEB0E94920B45
:1011400018167CF420E030E040E85FE3C501B4010C
:101150000E94000D87FF08C0C501B4010E9424024F
:1011600005C08FEF9FEF02C08FEF9FE78093C30111
:101170009093C40186E891E00E94C4035FEBA52E22
:1011800051E0B52E4501D4016D914D0170E080E034
:1011900090E040E10E94D6038EE891E00E94C403F3
:1011A000BBEC8B16B1E09B0671F780E991E00E94E1
:1011B000C40383E991E00E94C40360916D027091C1
:1011C0006E0280E090E04AE00E94D60380E991E060
:1011D0000E94C40340906D0250906E02EDB7FEB7BE
:1011E000C256DF4FF983E883CE59D040F301D501D1
:1011F0008D915D018193BBECAB16B1E0BB06B9F7F5
:1012000081E089831A821B821C821D821E8291EBDF
:101210009F8392E19887898796E29A874B865C86BE
:101220001D861E861F86888B60E171E0CE010196C7
:101230000E942504DE011196F3018D91908189278A
:101240008193C056DF4F2881C05AD0402E13F5CF6E
:1012500080E4898381EB8A8382E18B8381E08C83C4
:1012600096E29D831E824F8258868987DE011A96F8
:10127000F3018CE0860D91919D938E13FCCF80E15C
:10128000D601E82F1D92EA95E9F75E01F1E6AF0E6F
:10129000B11CD501E82F1D92EA95E9F74E01F1E561
:1012A0008F0E911CD401E82F1D92EA95E9F7D70122
:1012B0001D928A95E9F789E4F801808311821282F0
:1012C00013821482158281EB868382E1878381E019
:1012D000808786E281874286538614861586168625
:1012E00085E1878760E071E0C6010E942504D60190
:1012F0005C90C6010E94710557FE05C0F6019785F6
:1013000087E889278787D501F60180E18C0D9191C7
:101310009D938E13FCCFD5015C90C5010E94710591
:1013200057FE05C0F501978587E88927878760E024
:1013300071E0C8010E9425041401D401F8018191D3
:101340008D93CF55DF4F2881C15AD0402E13F7CF50
:10135000DE0111962701F7018D918193C356DF4F6E
:101360008881CD59D0408E13F7CFB401C7010E94B8
:10137000630560E071E0C7010E942504F7018191D7
:10138000D1018D931D01C356DF4FB881CD59D04097
:10139000BE13F5CFFE01719680E090E8853020F411
:1013A0002191D2012C930AC0853021F4D7011596E2
:1013B0009C9304C0863010F0D2011C928F5FBFEF67
:1013C0004B1A5B0A803151F7B501C7010E946305D2
:1013D000B401C7010E94630560E071E0C7010E948B
:1013E0002504F7013081218192818381482F477044
:1013F00040936F02492F477040936C023E8B2F8BB6
:10140000988F898F61E881E00E94DD056AE070E0D5
:1014100080E090E00E943A0660E480E40E94DD05EE
:1014200080917302882341F1E0916F02F0E0BF01E7
:10143000660F771FE60FF71FEE58FF4F649186E0A7
:101440000E94DD05E0916F02F0E0BF01660F771F9B
:10145000E60FF71FED58FF4F649187E00E94DD050E
:10146000E0916F02F0E0BF01660F771FE60FF71FF4
:10147000EC58FF4F64910CC06091740286E00E94AA
:10148000DD056091750287E00E94DD0560917602BE
:1014900088E00E94DD05609177028EE10E94DD0503
:1014A000609178028DE10E94DD056091790286E20B
:1014B0000E94DD0569E182E20E94DD0560E88DE0C1
:1014C0000E94DD05CE0101965C0199E1992E9A0CEE
:1014D000D5016D915D0180E00E94DD059A10F8CF85
:1014E00063E881E00E94DD052091710230E0B901DE
:1014F0006A537F4FA9014E545F4F22563F4FFB0165
:101500008491FA01B490F901A490AA20C1F3811149
:101510000E948405EA2DF0E0EE0FFF1FE859FF4F0F
:10152000A591B4918C91B822F9F260E081E00E941B
:10153000DD050FB6F894DEBF0FBECDBF80916D0202
:1015400090916E02019690936E0280936D0268EE08
:1015500073E080E090E00E943A0660E08DE00E9437
:10156000AD051092CC011092CB010E94180274CDEF
:1015700083EA91E00E94170447CDEDECF1E013827D
:10158000128288EE93E0A0E0B0E084839583A68386
:10159000B78385E291E09183808385EC90E0958725
:1015A000848784EC90E09787868780EC90E0918B2D
:1015B000808B81EC90E0938B828B82EC90E0958B1A
:1015C000848B86EC90E0978B868B118E128E138E17
:1015D000148EEAE6F2E080E5808311828FEF9FEFC0
:1015E0009093840280938302ECE6F2E082E08583AC
:1015F0008AE0848389E086830895A1E21A2EAA1BDB
:10160000BB1BFD010DC0AA1FBB1FEE1FFF1FA217B2
:10161000B307E407F50720F0A21BB30BE40BF50BAF
:10162000661F771F881F991F1A9469F76095709538
:10163000809590959B01AC01BD01CF010895EE0FFF
:10164000FF1F0590F491E02D09945058BB27AA275D
:101650000E943D0B0C94B00C0E94A20C38F00E942A
:10166000A90C20F039F49F3F19F426F40C949F0C38
:101670000EF4E095E7FB0C94990CE92F0E94C10C45
:1016800058F3BA17620773078407950720F079F4B7
:10169000A6F50C94E30C0EF4E0950B2EBA2FA02DBA
:1016A0000B01B90190010C01CA01A0011124FF270F
:1016B000591B99F0593F50F4503E68F11A16F0400A
:1016C000A22F232F342F4427585FF3CF4695379509
:1016D0002795A795F0405395C9F77EF41F16BA0BCE
:1016E000620B730B840BBAF09150A1F0FF0FBB1F7C
:1016F000661F771F881FC2F70EC0BA0F621F731FC5
:10170000841F48F4879577956795B795F7959E3F21
:1017100008F0B0CF9395880F08F09927EE0F9795B2
:10172000879508950E94750C08F481E008950E9441
:10173000AB0B0C94B00C0E94A90C58F00E94A20CA8
:1017400040F029F45F3F29F00C94990C51110C944E
:10175000E40C0C949F0C0E94C10C68F39923B1F324
:10176000552391F3951B550BBB27AA2762177307C7
:10177000840738F09F5F5F4F220F331F441FAA1F5B
:10178000A9F335D00E2E3AF0E0E832D09150504017
:10179000E695001CCAF72BD0FE2F29D0660F771FC5
:1017A000881FBB1F261737074807AB07B0E809F0AB
:1017B000BB0B802DBF01FF2793585F4F3AF09E3F30
:1017C000510578F00C94990C0C94E40C5F3FE4F311
:1017D000983ED4F3869577956795B795F7959F5F73
:1017E000C9F7880F911D9695879597F90895E1E0BF
:1017F000660F771F881FBB1F621773078407BA071E
:1018000020F0621B730B840BBA0BEE1F88F7E09578
:1018100008950E94C90C88F09F5798F0B92F992716
:10182000B751B0F0E1F0660F771F881F991F1AF0CB
:10183000BA95C9F714C0B13091F00E94E30CB1E041
:1018400008950C94E30C672F782F8827B85F39F040
:10185000B93FCCF3869577956795B395D9F73EF464
:1018600090958095709561957F4F8F4F9F4F08950C
:10187000E89409C097FB3EF490958095709561952A
:101880007F4F8F4F9F4F9923A9F0F92F96E9BB27E0
:101890009395F695879577956795B795F111F8CF5C
:1018A000FAF4BB0F11F460FF1BC06F5F7F4F8F4FC7
:1018B0009F4F16C0882311F096E911C0772321F0BD
:1018C0009EE8872F762F05C0662371F096E8862F55
:1018D00070E060E02AF09A95660F771F881FDAF7AC
:1018E000880F9695879597F90895990F0008550FD9
:1018F000AA0BE0E8FEEF16161706E807F907C0F096
:1019000012161306E407F50798F0621B730B840B9D
:10191000950B39F40A2661F0232B242B252B21F477
:1019200008950A2609F4A140A6958FEF811D811D17
:10193000089597F99F6780E870E060E008959FEF51
:1019400080EC089500240A94161617061806090656
:10195000089500240A941216130614060506089525
:10196000092E0394000C11F4882352F0BB0F40F4AD
:10197000BF2B11F460FF04C06F5F7F4F8F4F9F4FED
:10198000089557FD9058440F551F59F05F3F71F06F
:101990004795880F97FB991F61F09F3F79F08795D6
:1019A0000895121613061406551FF2CF4695F1DF5F
:1019B00008C0161617061806991FF1CF86957105EF
:1019C000610508940895E894BB2766277727CB0123
:1019D00097F90895FA01108211820E94C90C70F0E3
:1019E000992351F09E57550B87FF0E94BA0D9083A3
:1019F000518311248F779FE397F908950C94AC0DD0
:101A00000E94750C08F48FEF08950C94990C0C94B7
:101A1000AC0D0E94C90CD8F39923C9F3940F511D42
:101A2000A3F39150504094F059F0882332F0660FA0
:101A3000771F881F91505040C1F79E3F51052CF7EA
:101A4000880F911D9695879597F908955F3FACF0A3
:101A5000983E9CF0BB27869577956795B79508F4D7
:101A6000B1609395C1F7BB0F58F711F460FFE8CF51
:101A70006F5F7F4F8F4F9F4FE3CF0C94E40C0E941A
:101A8000520D0C94B00C0E94A20C38F00E94A90CCC
:101A900020F0952311F00C94990C0C949F0C1124B8
:101AA0000C94E40C0E94C10C70F3959FC1F3950F48
:101AB00050E0551F629FF001729FBB27F00DB11DD2
:101AC000639FAA27F00DB11DAA1F649F6627B00D62
:101AD000A11D661F829F2227B00DA11D621F739F4B
:101AE000B00DA11D621F839FA00D611D221F749F59
:101AF0003327A00D611D231F849F600D211D822FA0
:101B0000762F6A2F11249F5750409AF0F1F08823C6
:101B10004AF0EE0FFF1FBB1F661F771F881F9150F3
:101B20005040A9F79E3F510580F00C94990C0C94FD
:101B3000E40C5F3FE4F3983ED4F386957795679580
:101B4000B795F795E7959F5FC1F7FE2B880F911D1D
:101B50009695879597F908959F3F31F0915020F41D
:101B6000879577956795B795880F911D9695879579
:101B700097F9089591505040660F771F881FD2F74C
:101B8000089581E090E0F8940C94C60DF894FFCF8E
:101B9000570FE8798E8E65B618FF78B4553C5D4CCA
:101BA0005144B814475EBB1C4253274C03D0A338A2
:101BB0000000000000AF0118014701F6017801564E
:101BC000016A0153657269616C2073746172746596
:101BD00064005374617274696E67204C6F52612E99
:101BE0002E2E00204F4B006F6273657276696E6710
:101BF0002E2E2E00656E64206F6620736C656570F6
:101C00000053656E64696E67204C6F5261204461B9
:101C100074612E2E2E005061796C6F61643A200041
:101C20000D0A004672616D6520436F756E746572B2
:101C30003A20004661696C65643A20436865636BCD
:0C1C400020796F757220726164696F007A
:00000001FF
